:10000000A8540020152700000F63000045270000BA
:10001000452700004527000045270000000000009C
:10002000000000000000000000000000B5250000F6
:100030004527000000000000112500003762000085
:10004000ED260000ED260000ED260000ED26000064
:10005000ED260000ED260000ED260000ED26000054
:10006000ED260000ED260000ED260000ED26000044
:10007000ED260000ED260000ED260000ED26000034
:10008000ED260000ED260000ED260000ED26000024
:10009000ED260000ED260000ED260000ED26000014
:1000A000ED260000ED260000ED260000ED26000004
:1000B000ED260000ED260000ED260000ED260000F4
:1000C000ED260000ED260000ED260000ED260000E4
:1000D000ED260000ED260000ED260000ED260000D4
:1000E000ED260000ED260000ED260000ED260000C4
:1000F000ED260000ED260000ED260000ED260000B4
:1001000053B94AB9002908BF00281CBF4FF0FF317E
:100110004FF0FF3000F06EB9ADF1080C6DE904CE80
:1001200000F006F8DDF804E0DDE9022304B07047D2
:100130002DE9F047089D04468C46002B40F0838053
:100140008A42174647D9B2FA82F242B1C2F1200080
:1001500024FA00F09140974040EA010C94404FEAA5
:100160001748230CBCFBF8F61FFA87FE08FB16C1E4
:1001700043EA014306FB0EF1994209D9FB1806F147
:10018000FF3080F01981994240F21681023E3B44D3
:100190005B1AA4B2B3FBF8F008FB103344EA034443
:1001A00000FB0EFEA64509D93C1900F1FF3380F093
:1001B0000581A64540F2028102383C4440EA0640EF
:1001C000A4EB0E0400261DB1D4400023C5E9004372
:1001D0003146BDE8F08702B9FFDEB2FA82F2002AAA
:1001E00050D1CB1B4FEA174E1FFA87F80126B3FBFD
:1001F000FEFC210C0EFB1C3341EA034108FB0CF30F
:100200008B4207D979180CF1FF3002D28B4200F2F1
:10021000E9808446C91AA3B2B1FBFEF00EFB1011AF
:1002200043EA014408FB00F8A04507D93C1900F156
:10023000FF3302D2A04500F2D9801846A4EB08048F
:1002400040EA0C40BFE78B4209D9002D00F0B18095
:100250000026C5E9000130463146BDE8F087B3FA13
:1002600083F6002E4AD18B4202D3824200F2B8803C
:10027000841A61EB030101208C46002DA8D0C5E94A
:10028000004CA5E7C2F1200320FA03F6974001FADB
:1002900002F04FEA174ED9403043030CB1FBFEF693
:1002A0001FFA87F80EFB161143EA014306FB08F11B
:1002B000994204FA02F409D9FB1806F1FF3C80F0D8
:1002C0008D80994240F28A80023E3B445B1A81B2A3
:1002D000B3FBFEF00EFB103341EA034100FB08F3D1
:1002E0008B4207D9791800F1FF3C73D28B4271D948
:1002F00002383944CB1A40EA064678E7C6F1200CAA
:1003000003FA06F422FA0CF31C4320FA0CF701FA64
:1003100006F34FEA144E21FA0CF11F433B0CB1FBDC
:10032000FEF91FFA84F80EFB191143EA014109FB9B
:1003300008FA8A4502FA06F200FA06F308D96118AB
:1003400009F1FF3048D28A4546D9A9F10209214472
:10035000A1EB0A01BFB2B1FBFEF00EFB101147EAA0
:10036000014700FB08F8B84507D9E71900F1FF314C
:100370002ED2B8452CD90238274440EA0940A7EBD1
:100380000807A0FB02894F45C64649461AD317D035
:100390005DB1B3EB0E0267EB010707FA0CFCF2400C
:1003A0004CEA0202F740C5E9002700263146BDE8C5
:1003B000F0872E4628460BE70646E9E61846FDE696
:1003C0004345E5D2B8EB020E69EB04010138DFE7E3
:1003D0000846D2E760468DE78146B9E7664675E78D
:1003E00030464AE7ACF1020C394413E702383C448A
:1003F00024E700BF704700BF30B585B04FF0000064
:10040000032363F302006FF3C500324B324A9B1A99
:10041000C3F3C90363F38F10304905F0C6FC00F045
:100420009BF82F4800F068F8A8B101A800F0B2FDD1
:1004300010B34FF00000012363F302006FF3C50017
:10044000244B254A9B1AC3F3C90363F38F10254934
:1004500005F0ABFCFEE7012363F302006FF3C50078
:100460001C4B1D4A9B1AC3F3C90363F38F101C4A2C
:100470001D4905F09AFCFEE703254FF0000065F3E7
:1004800002006FF3C500134C134BE41AC4F3C90404
:1004900064F38F10039A154905F087FC4FF00000B4
:1004A00065F302006FF3C50064F38F10104905F087
:1004B0007CFC01A804F014FB4FF00000012363F35F
:1004C00002006FF3C50064F38F100A4905F06DFC5C
:1004D000FEE700BFF4840000EC84000038850000D3
:1004E0004C8500007C850000608500009C85000034
:1004F000C8850000E885000008B5054B1B6813B1EE
:10050000034B186808BD04F019F8014B1860F7E7B1
:100510006001002010B900200860704708B502464D
:100520004FF00000012363F302006FF3C500074B97
:1005300007495B1AC3F3C90363F38F10002305490E
:1005400005F033FC6FF0150008BD00BFF484000017
:10055000EC8400000886000008B54FF4C051024842
:1005600003F056FA08BD00BF6401002070B5A4B0C6
:10057000202928D806460D460024144B1B68A342A8
:100580001CDD09A807F0B3FC002109A803F06EFBED
:100590000F4B03EBC4025268126853F8341009A8D9
:1005A00007F0ABFC01A909A807F0EAFC2A4631468E
:1005B00001A805F016FF18B10134DEE74FF0FF3453
:1005C000204624B070BD4FF0FF34F9E72C860000C0
:1005D000308600002DE9F041D6B014461D465F9EDE
:1005E00004965E9E039606AE02965D9E01965C9E04
:1005F000009604F0B8FA0646002840F08280609B1E
:1006000023B1202206A9184605F003FF002300931A
:100610004FF6FF732A4621464EA804F0E3FA064639
:1006200000286ED1074680464FF0FF341DE04FF0A2
:10063000FF341AE04FF0FF3417E04FF0FF3401278A
:1006400013E0BDF85231202B5FD10EAA55992846F0
:1006500005F095FC00285BD120220EA906A805F024
:10066000C0FE002856D14FF0010854AB0DF5A97219
:1006700055A94EA804F01BFB002840DB38DCBDF870
:100680005021102ADDD0012A21D0202AEDD1002CC2
:10069000CDDB294B1B68A342CCDDBDF85231B3F54D
:1006A000807F3FD10EAA5599284605F068FC0028A6
:1006B0003BD1E4B20094BDF852310EAA202106A825
:1006C00000F0AEF80028B8D04FF0FF34CDE7BDF809
:1006D0005231202B21D80EAA5599284605F04FFCFF
:1006E000F0B99DF852110EA8FFF740FF0446BCE791
:1006F000B8F1000F1CD027B94FF0FF3601E04FF0E2
:10070000FF36304656B0BDE8F0814FF0FF36F8E7CF
:100710000646F6E74FF0FF36F3E74FF0FF36F0E717
:100720000646EEE74FF0FF36EBE74FF0FF36E8E71F
:100730004FF0FF36E5E700BF2C86000070B5ADF541
:100740001C7D0E4619464368B3F5807F51D1202A9F
:1007500052D141AA03F048FA054600284FD19DF82E
:100760000332BC2B4ED10DF2E31109A804F04DFB6E
:100770002B46DE2B07DC41AAD25C09A8C45C624090
:10078000C2540133F5E79DF8243003F07F038DF860
:100790002430BD2D04DC09AB5B5DB3BB0135F8E74C
:1007A0009DF8E230012B35D181A807F0A0FB002194
:1007B00081A803F05BFA0822184981A807F09DFB85
:1007C0002022314681A807F098FB20220DF1E30199
:1007D00081A807F092FB01A981A807F0D1FB202294
:1007E0000DF2E31101A805F0FCFD80B14FF0FF30E0
:1007F0000DE04FF0FF300AE04FF0FF3007E04FF020
:10080000FF3004E04FF0FF3001E04FF0FF300DF516
:100810001C7D70BD4FF0FF30F9E700BF3886000047
:100820002DE9F043ADB006460F4690461D469DF8B3
:10083000D0900022114601A807F013FB114C54F888
:100840003930009304EBC904626812681A4469469F
:1008500001A804F088FA044610B9029BAB4206D006
:1008600001A807F00CFB20462DB0BDE8F0834346FD
:100870003A46314601A8FFF761FF044601A807F098
:10088000FEFAF0E73086000008B51022034905F0B3
:10089000A8FD08B1022008BD0120FCE78C860000FD
:1008A00070B586B00D460123ADF80430002407E092
:1008B000286805F063FB23E0286805F05FFB01343E
:1008C000012C1BD8294606AB234413F8140C01F065
:1008D000E3FA0646A0B928688168102302AA1039F5
:1008E00005F04DFB06460028E2D11022064902A879
:1008F00005F077FD06460028DED101E04FF0FF3617
:10090000304606B070BD00BF8C86000008B5816817
:100910001023044A103905F051FB00B908BD01202D
:10092000FCE700BF8C86000030B585B002A901202D
:1009300004F06DFB00286ED16946022004F067FBCD
:1009400000286AD1002407E02B79042B29D09DF8D8
:100950000A20934225D00134022C48D804EB4403EA
:100960002F4A02EB43059DF8081012F8130004F01B
:10097000BFFA0028EFD09DF80010687804F0B8FAAC
:100980000028E8D0AB78042B03D09DF80B209342CD
:10099000E1D1EB78042BD7D09DF803209342DAD134
:1009A000D2E74FF00000032363F302006FF3C500AA
:1009B0001C4B1D4A9B1AC3F3C90363F38F106B7959
:1009C000022B07D0032B10D0042B01D0174A02E0D2
:1009D000174A00E0174A184905F0E7F96879831EBD
:1009E000DBB2022B15D9FF2013E0144AF3E74FF0D6
:1009F0000000032363F302006FF3C500094B0A4AAA
:100A00009B1AC3F3C90363F38F100D4905F0CDF9A9
:100A1000012005B030BDFF20FBE7FF20F9E700BF54
:100A20009C860000F4840000EC84000050860000E6
:100A300064860000408600006C8600004886000046
:100A40007C86000002680F4B9A420ED1C26803896F
:100A5000D84382420DD810B4D418012010B18B684D
:100A6000A34204D95DF8044B704700207047002072
:100A7000F8E7002010B18B68A34200D9704700202E
:100A8000704700BF3DB8F39600B587B0134600200D
:100A90000490039002904FF480720192054A0092F4
:100AA0000A460146FFF796FD10B907B05DF804FB52
:100AB0000320FAE7C42500202DE9F04182B0064664
:100AC0000C461546002004F02EF801A9C0B201F032
:100AD000E3F928B14FF0FF35284602B0BDE8F081B8
:100AE0002C2000FB04672146304604F04CFB00B389
:100AF0003B6913F0100F1CD1DDF8048041463846E5
:100B0000FFF7A0FF00BB4CBB4FF00000012363F3D5
:100B100002006FF3C500154B154A9B1AC3F3C903B6
:100B200063F38F1004BB134A134905F03EF9012506
:100B300001E024B90125019805F020FACCE70199DC
:100B4000304604F028FCF5E72B464246394630464D
:100B5000FFF79AFF05460028EDD0D4E70198826898
:100B6000002105F05BFACFE7044ADDE7F4840000DA
:100B7000EC840000BC860000C4860000B086000043
:100B800030B583B005460C46002300930193084618
:100B900004F098FB30B32A681F4B9A4216D0EA6AD9
:100BA0001D4B9A4218D0019B009A934200D90093A2
:100BB000009BA360009A2146284600F0B3FC174B27
:100BC0001A68002A16DC002003B030BD6A460021F6
:100BD000284604F081FAE2E701AA0121284604F040
:100BE0007BFAE0E704F10801002004F025FAA3688D
:100BF0000093DFE74FF00000022363F302006FF37E
:100C0000C500074B07495B1AC3F3C90363F38F1091
:100C1000054905F0CAF8D6E73DB8F396C42600208A
:100C2000F4840000EC840000E886000038B5044637
:100C30000D46FFF7A5FF0246EB7984F85830033BD9
:100C4000DBB2012B0CD9EB79022B13D0042B11D082
:100C5000032B0FD094F85830FF2B15D0104638BD19
:100C6000002004F03EFC02460028ECD0FF2384F86C
:100C70005830E8E7002004F021FC02460028E9D0C3
:100C8000FF2384F85830E5E74FF00000012363F3B9
:100C900002006FF3C500054B054A9B1AC3F3C90355
:100CA00063F38F10034905F080F8FEE7F484000039
:100CB000EC8400001487000038B504460D4604F0AB
:100CC000AAFA68B900221146204604F0BAFAE8B937
:100CD000204600F0E1FA78BB012384F8583014E094
:100CE0004FF00000022363F302006FF3C500474B8F
:100CF000474A9B1AC3F3C90363F38F108022454907
:100D000005F053F8012384F8583038BD4FF0000047
:100D1000022363F302006FF3C5003C4B3C4A9B1A6D
:100D2000C3F3C90363F38F1000223B4905F03DF87C
:100D3000012384F85830E8E7284604F0B9FA294638
:100D4000204604F082FBE8B9284604F0BBFA80F0A4
:100D500001012A46C9B2204604F073FA40BB284676
:100D600004F0B0FA002839D0EB79012B43D02A46A1
:100D700001212046FFF7A0FE002843D0052384F878
:100D80005830C2E74FF00000022363F302006FF314
:100D9000C5001E4B1E4A9B1AC3F3C90363F38F1091
:100DA00000221E4905F001F8012384F85830ACE711
:100DB0004FF00000022363F302006FF3C500134BF2
:100DC000134A9B1AC3F3C90363F38F10002212491D
:100DD00004F0EBFF012384F8583096E729462046BB
:100DE000FFF724FF2A460021204604F02AFA0123B7
:100DF00084F8583089E72946204604F03DFA84F803
:100E0000580082E7EB7984F858307EE7F4840000DC
:100E1000EC8400001C8700005C87000084870000D1
:100E20002DE9F84F884691461F46DDF828A00B9E15
:100E300000250FE023460F4AE919404605F09FF8C8
:100E4000A0B923460B4A05EB0A01484605F0B6F85F
:100E500070B92544B54206D2741BB4F5806FE9D948
:100E60004FF48064E6E70020BDE8F88F0120FBE73F
:100E70000120F9E7C419002070B584B004460D467E
:100E80006022002105F0EAFA3D4B63623D4B236589
:100E900000260CE03146002003F045FE2C2101FB2A
:100EA00006F120312144C0B200F0F6FF0136012ED8
:100EB000F0D969462046FFF7FFFE94F858308DF8C8
:100EC0000730042B25D8022B2ED2012B31D194F8D8
:100ED0005830FF2B31D0012B06D06A460021204626
:100EE00004F0AFF9064690B9002211462046FFF7FC
:100EF000E3FD064698BB10220021684605F0AEFAD5
:100F0000236A5B782B71236A5B68AB602C600025D9
:100F100030E0052B0DD1002004F0E3FA0028D6D0F4
:100F2000FF2384F85830D2E76946204604F0DBF905
:100F3000CDE7FF2384F85830C9E74FF000000123C4
:100F400063F302006FF3C5000F4B104A9B1AC3F303
:100F5000C90363F38F100E4904F027FFFEE7032651
:100F6000D5E7C5F101032C2202FB0343186A05F003
:100F700005F80135012DF4D9304604B070BD00BF2D
:100F8000C41D0020C4210020F4840000EC84000073
:100F90001487000008B501460148FFF76DFF08BD42
:100FA000641900202DE9F04383B00F4615461C4616
:100FB000DDF82880536A53F830601A68B61A013891
:100FC00053F83030A3EB02092368012B1BD03A46BB
:100FD0003146404604F0DBF9019700964B46424605
:100FE00041462846FFF71CFF2146284604F09CF99D
:100FF00023680133236018B10C4A1368013313606E
:1010000003B0BDE8F083E368022B04D10B992846B6
:1010100004F0C1F9DBE74146284604F0BCF922465A
:101020004146284604F0EFF9F0E700BFC42600204F
:101030002DE9F04383B00E4615461C46526A52F81D
:1010400030101368A1EB0308013852F83070FF1A12
:101050002A6D52F830101368A1EB03092379012B94
:1010600005D02379022B1CD003B0BDE8F0833246B3
:1010700039460A9804F08BF9019600974B460A9A74
:101080000B992846FFF7CCFE2146284604F04CF980
:10109000022323710028E4D0114A1368013313603E
:1010A000DFE7324649460B9804F071F90196CDF816
:1010B000009043460B9A0A992846FFF7B1FE214655
:1010C000284604F031F9236801332360012323719A
:1010D0000028C9D0024A136801331360C4E700BF77
:1010E000C426002070B582B015461E46002B36D0AF
:1010F000436A5C687379012B11D0022B17D000244E
:10110000002003F010FD01A9C0B200F0C5FE68B3D5
:101110000124019804F032FF204602B070BD01BBEB
:1011200032681C4B1B689A42EAD80024E8E733680F
:10113000012B07D9174A1268934203D899B90024A2
:101140000121DDE7012B01D00024D9E701B1002402
:101150000129D5D13379022BD2D10021D0E7002447
:10116000CEE70024CCE700242146C9E720232A4605
:101170002146019804F003FF044640B9002EC8D070
:101180002A68054B9A42C4D04FF0FF34C1E70124CE
:10119000BFE700BF000000203DB8F3962DE9F04FF7
:1011A00085B006460D4601920146002003F0B8FEC8
:1011B000041E62DBD5F85CA0304603F0BCFE81461D
:1011C0004FF0000B01274FF0FF3805E0874201D0B8
:1011D0000BF1010B2C460746002C13DD651E5FFA50
:1011E0008AF101230DF10F0205FB0191304603F056
:1011F000A6FC002843DB0128E8D0B8F1FF3FE9D185
:10120000A046E7E7BBF1010F0EDCB8F1FF3F3AD093
:10121000B8F17F0F1ADC012301994B7108EB03022F
:101220000A600B7100202BE04FF00000012363F3F4
:1012300002006FF3C500154B154A9B1AC3F3C9038F
:1012400063F38F10134904F0B0FDDEE70223019A27
:101250005371A8F1800808EBD8735B100133136059
:10126000B8F1000F08F00108B8BFC8F1000808F194
:10127000010882F80480002002E0072000E001203D
:1012800005B0BDE8F08F0020FAE700BFF48400004D
:10129000EC840000AC87000038B5856A446DA54237
:1012A00002D0631CAB4211D1802D22D800231946F5
:1012B000A34244D2426A02EBC3025168026D02EBC0
:1012C000C30252688A4227D10133F1E74FF0000090
:1012D000022363F302006FF3C500284B284A9B1AD0
:1012E000C3F3C90363F38F10264904F05EFD0020A9
:1012F00024E04FF00000022363F302006FF3C50007
:101300001E4B1F4A9B1AC3F3C90363F38F101E4978
:1013100004F04BFD002011E04FF00000022363F3C6
:1013200002006FF3C500154B154A9B1AC3F3C9039E
:1013300063F38F10154904F038FD002038BDA54235
:101340001AD9426A02EBC3035B68994201D10120BA
:10135000F4E74FF00000022363F302006FF3C500CF
:10136000064B074A9B1AC3F3C90363F38F1007495F
:1013700004F01BFD0020E1E70120DFE7F48400001A
:10138000EC840000CC870000008800002C8800005E
:1013900010B586B004A9012003F039FE4FF000001B
:1013A000032363F302006FF3C500264B264A9B1A02
:1013B000C3F3C90363F38F109DF81030012B2DD0B8
:1013C000032B29D0214B9DF811209DF812109DF878
:1013D00013400294019100921D4A1E4904F0E5FC5D
:1013E0009DF81030012B03D19DF81230032B17D03C
:1013F0004FF00000032363F302006FF3C500114BAD
:10140000114A9B1AC3F3C90363F38F10124904F006
:10141000CCFC002006B010BD104BD4E7104BD2E737
:101420004FF0000063F302006FF3C500054B064A5E
:101430009B1AC3F3C90363F38F100A4904F0B5FC88
:101440000220E7E7F4840000EC84000054880000E8
:101450006888000078880000D0880000608800005C
:1014600058880000B4880000F0B587B00C46496881
:1014700001F0FF21234DA94204D1064617462268F8
:10148000012A01D007B0F0BD04A9184603F0BFFD42
:101490004FF00000032363F302006FF3C5001A4B03
:1014A0001A4A9B1AC3F3C90363F38F109DF81030D7
:1014B000012B24D0032B20D0154B9DF811209DF833
:1014C00012109DF81350029501910092114A124991
:1014D00004F06BFC9DF81030032BD3D13946304615
:1014E00003F059FF384603F0C9FDA168384603F000
:1014F000DEFD3846FFF70AFAC4E7084BDDE7084B84
:10150000DBE700BF00010004F4840000EC8400006D
:1015100054880000E488000078880000608800009B
:1015200058880000F0B585B007460D4600243E4BB4
:101530001C60436A5E6834443B490B6801330B60AE
:101540009442F8D3284603F0BDFE70B1F86D03F065
:10155000E2FCBA6A013A00233344984201D9013AC5
:10156000FAE7314B1B68934214D203A9012000F023
:1015700093FC02A9022000F08FFC0223029A294664
:101580003846FFF771FF6B79012B17D002236B717F
:10159000012438E04FF00000022363F302006FF3F0
:1015A000C500224B224A9B1AC3F3C90363F38F1071
:1015B000204904F0FAFB0123EB7132E01A4B1C685E
:1015C0000AE0029B0193039B00932B463A46314667
:1015D0002046FFF7E7FC013C3CB12A68124B1B6830
:1015E0009B1A01339C42F6D8EBE701232B60CDE731
:1015F000029B0193039B00932B463A4631462046BB
:10160000FFF716FD0134084B1B68A34203D32B6878
:10161000A342F7D8ECE7039804F0B0FC029804F07A
:10162000ADFC05B0F0BD00BF00000020F484000058
:10163000EC840000F4880000BFF36F8F72B60023C3
:1016400008E003F120010B4A4FF0FF3042F821007F
:101650000133DBB2072BF4D9002308E003F160016A
:10166000044A4FF0FF3042F821000133DBB2072B70
:10167000F4D9704700E100E02DE9F04F89B09246BF
:101680009B469DF84C3001939DF8507014240097B0
:101690000F460646129D5AEA0B0318D04FEAE57929
:1016A0002A464B4650465946FEF72AFD274B13441F
:1016B0001A7808AB234403F8182C2A464B465046A8
:1016C0005946FEF71DFD82468B46013CE3E7354651
:1016D0003E46009F142C0BD00134159B04EB0308ED
:1016E000B8F1150F0AD0A8F11508A146019C0FE02A
:1016F000302208AB234403F8182CEEE74FF0000823
:10170000A146019C04E031463846A84708F1FF385D
:10171000B8F1000F03DD002CF5D14C4600E04C463B
:10172000142C07D808AB2344314613F8180CA847EB
:101730000134F5E7B8F1000F05DD31463846A8471A
:1017400008F1FF38F6E709B0BDE8F08F348A0000F1
:101750002DE9F04383B0044608461546238B13F069
:10176000080F05D103F0070600230093019369E0F9
:10177000012909D043F02003238385F31188BFF3A7
:101780006F8F03B0BDE8F08343F010032383F4E7C9
:10179000204604F0E5F857E0D4F814904A4669462C
:1017A000204604F0F6F800275AE023691F68062156
:1017B000204604F0AEF84FF0000951E023695F685D
:1017C0000421204604F0A5F84FF0000948E0236901
:1017D0009F680521204604F09CF84FF000093FE087
:1017E000002246E0002244E043F00803238385F30F
:1017F0001188BFF36F8F002944D1009B2BB14B465A
:1018000042466946204604F03AF917B12549204678
:10181000B8474FF02003EFF3118583F31188BFF32E
:101820006F8F238B23F008032383238B13F0100F78
:101830002ED023F0100323830120268B06F0070609
:1018400000289AD00228A3D0002896D00128A3D03F
:101850000328AAD00428B1D00528B8D00027B9465B
:10186000238B03F00708B045BAD0A268002AB9D08C
:1018700001221146002AB7D1009A002AB4D1002FC4
:10188000B2D1D2E74A464146204604F04AF8B4E7CE
:1018900013F0200F04D023F0200323830220CCE791
:1018A0000020CAE7AD5A00002DE9F04385B080461C
:1018B0000F461546124B1B6898470646002400E069
:1018C0000134104B104A9B1AB4EB231F15DA0E4853
:1018D00000EB041043685B79002BF1D003952301E2
:1018E000094AD358D3F80490B9F1000FE8D0009515
:1018F0003B4632464146C847E2E705B0BDE8F083C3
:1019000004000020248500001485000008B5044B65
:10191000044A1A604FF4004000F00EFA08BD00BF00
:1019200004000020A35D0000054B064A9B1AB1EBA2
:10193000D30F02D252F8310070470020704700BF29
:1019400014850000EC84000008B50B4BC31A1B1172
:1019500001334268137143681960436801225A7168
:10196000064B1B781BB1054B01221A7008BD0448B9
:1019700003F002F8F7E700BF14850000A02C002058
:101980007C00002038B5154BBFF35B8F53E8002F68
:10199000511C43E800100028F8D1BFF35B8FDAB97F
:1019A000002405E0042200212846FFF7CDFF013482
:1019B0000B4B0C4A9B1AB4EB231F0DDA094D05EBB8
:1019C00004152B7B002BF2D02301064AD3585B6908
:1019D000002BE7D09847E5E738BD00BFC8260020B8
:1019E0002485000014850000104B1B7803B170475C
:1019F00010B5FFF7C7FF002400E001340C4B0D4A7F
:101A00009B1AB4EB231F0CDA0A4800EB041043685E
:101A10005B79002BF1D02301064AD3581B69984704
:101A2000EBE7024B01221A7010BD00BFA12C002071
:101A300024850000148500000EB400B582B0014674
:101A400003AB53F8042B0193044803F0D7FD0020A7
:101A500002B05DF804EB03B0704700BFD35D000037
:101A6000F0B585B011F0440F05D01A4B1C6834B99D
:101A7000002005B0F0BD1849FFF7DEFFF9E7174B6E
:101A80001968B2FBF1F1B1FBF4F5154AA2FB05327E
:101A9000D20A4FF4616606FB1256124BA3FB067383
:101AA0005B0904FB15114FF47A7505FB01F1B1FBDD
:101AB000F4F707FB141105FB01F1B1FBF4F40294F8
:101AC0000197C3EB0311A6EB810100910649FFF7D3
:101AD000B3FFCEE7CC260020488A0000D0260020A5
:101AE000C5B3A29189888888548A000061B108B57D
:101AF0002AB1064A52F8232012B9054A00E0044AE6
:101B00000449FFF799FF08BD704700BFCC8A000069
:101B1000708A0000788A000011F0100F0BD108B510
:101B200011F0200F03D00449FFF786FF08BD0349D9
:101B3000FFF782FFFAE770472C8C00007C8A0000D8
:101B40002DE9F04105460F46164698460699FFF7DF
:101B5000E3FF0024444505DA23492846FFF76CFFDC
:101B60000134F7E7002409E01F492846FFF764FF26
:101B70000BE01E492846FFF75FFF01340F2C0CDCF9
:101B8000002C02DD14F0070FEED0B442F1D23A5D22
:101B900017492846FFF750FFEFE716492846FFF799
:101BA0004BFF002409E010492846FFF745FF0BE0F2
:101BB00011492846FFF740FF01340F2C12DC002C9E
:101BC00002DD14F0070FEED0B44206D23A5DA2F166
:101BD00020035E2BECD92E22EAE703492846FFF7C3
:101BE0002BFFE9E7BDE8F081A48A0000888A0000A5
:101BF000808A00008C8A0000908A0000F8B50446B4
:101C000016461D4649B9002786B10123079A93401D
:101C100013F0100F16D10C4E09E00C4B079A53F835
:101C200022200B49FFF708FF0746EDE7064E06990D
:101C30002846FFF779FE024631462046FFF7FCFEB4
:101C40003844F8BD034EF2E7948A0000E08A0000B1
:101C5000A08A00009C8A000070B584B005461E462C
:101C6000C1F3C203C1F3891011F007040FD1089B1F
:101C700032462946104803F0C1FC94B9304604F0BE
:101C8000C2F898B10D492846FFF7D6FE0EE0029043
:101C900001930094134601220999284604F0D6F8CE
:101CA000E5E722460999284604F0C4F8284604F0DE
:101CB000F4F804B070BD00BFD35D0000A88A000036
:101CC0002DE9F04784B007461D460C9E0D9CDDF8BB
:101CD000388001F0070AC1F3C203C1F389110291F0
:101CE0000193CDF800A013460122414604F0AEF85E
:101CF00081462A460F493846FFF79EFE74B12546B5
:101D0000102C28BF1025CDF800804B462A463146BE
:101D10003846FFF715FF2E44641BEFE75246414655
:101D2000384604F087F8384604F0B7F804B0BDE848
:101D3000F08700BF788A0000074B01221A60074B2A
:101D4000984205D94008044A13685B001360F6E71F
:101D5000034B1860704700BFD026002040420F00A0
:101D6000CC260020014B01221A707047A22C0020C3
:101D700008B518B9044B00221A7008BD41F288302A
:101D800006F059FAF9E700BFA22C002038B5044646
:101D90000A4B01221A700A4B1B7803B938BD002088
:101DA00000F08CFB0028F9D0044B1B78002BF5D0F9
:101DB000651E2046FFF7DCFF2C46F0E7A22C002032
:101DC000A32C0020F8B506460D46042706E0384649
:101DD000FFF7DCFF9CB90D4B1B7883B12A463146D7
:101DE000002000F007FB04460028F0D1074B1B78C9
:101DF000002BEFD0013F3846FFF7BAFFEAE714B9EE
:101E0000024B1B7803B92C462046F8BDA22C0020BB
:101E100008B5034B01221A70024804F03EF808BDD1
:101E2000A32C00201C8B000000B585B00F20029071
:101E300007980190069800900248FFF741FF05B00F
:101E40005DF804FB1C8B000000B583B00F200190EF
:101E5000049800900248FFF7FFFE03B05DF804FB12
:101E60001C8B000010B404460023094A12689A42F1
:101E700009DD1A010749096801EB03108A5CA242D7
:101E800002D00133F1E700205DF8044B704700BF3A
:101E90007C8B000008000020084B1B683BB110B58C
:101EA0000C46FFF7DFFF28B12060002010BD6FF067
:101EB0000C0070476FF00100F8E700BF0800002039
:101EC00000B58BB003AB0093024B04F030F80BB0BD
:101ED0005DF804FBF35E0000004870473C270020DB
:101EE000034BC01A8010034B03FB00F0704700BF88
:101EF000FC260020B76DDBB638B505460C46FFF76B
:101F0000EFFF01464022034804F039F90146284614
:101F1000A04738BD2800002030B585B005460C46E6
:101F200000230193084B02930391FFF7D9FF014669
:101F3000402301AA054804F03CF9011E01DB05B06D
:101F400030BD2846A047FAE7FF61000028000020C6
:101F500008B510B101280DD008BD0021084804F0D3
:101F600094F8836813F0070FF6D10021044804F0B9
:101F7000F4F8F1E70121024804F0EFF8ECE700BFC4
:101F80002800002010B54FF02003EFF3118483F3F5
:101F90001188BFF36F8F134A136843F00203136075
:101FA00013F0010F08D1002384F31188BFF36F8F62
:101FB0009BB904F03BF910BD4FF08043D3F80C24DB
:101FC000D3F80C3412F0010F01D10023ECE7FFF736
:101FD00083FF04F0AFF80123E6E70021024804F094
:101FE000BCF8E8E74C2700202800002008B50A4B81
:101FF000BFF35B8F53E8002F22F0020143E800108B
:102000000028F7D1BFF35B8F12F0010F00D008BD9D
:1020100004F002F9FBE700BF4C27002070B506462C
:1020200000220121104600F0F3FA002000F0D2FA5D
:10203000114801F007FA114B98421AD104F08FFBB6
:10204000002403E00123AB601C44E4B2012C0ED851
:102050002146304604F019F805462146304604F082
:1020600021F8074903F030FD0028EBDA00E00020FA
:1020700070BD6FF00400FBE7511F00000000AD0BC6
:10208000D48B000070B50546012807D14FF080437E
:10209000D3F81C3403F00303012B58D006F0C5F825
:1020A00028B92E4B1B78002B41D0002300E00123E0
:1020B0001C46002B3DD04FF02003EFF3118683F335
:1020C0001188BFF36F8F24B94FF080430222C3F809
:1020D00008234FF08042D2F8183403F00303D2F8FB
:1020E000182412F4803F2BD100221AB1012B29D0E1
:1020F000012D27D0FCB1304600F0BCFA4FF08043F0
:10210000D3F81835002BE4D1154B1B68002BE0D019
:10211000134B00221A601B6801234FF08042C2F863
:102120001835104AC2F880310F4A1360D1E70123F5
:10213000BEE70026C7E72120002102F0EBFBDDE728
:102140000122D2E724B186F31188BFF36F8F70BDEF
:102150004FF080430222C3F80423F8E7A62C0020A6
:102160000401004000E100E00800004010B5044612
:10217000104B0121BFF35B8F53E8002F43E80010A1
:102180000028F9D1BFF35B8F1AB1631E012B0CD964
:1021900010BD094803F086FF084900234B60CB605F
:1021A00001238B6003F0ACFCEFE72046FFF76AFFEA
:1021B000EEE700BF5027002028000020EC2600207A
:1021C00020F07F40014BC3F84005704700100140EC
:1021D000014BD3F84005704700100140024B00222C
:1021E0001A601B68704700BF40110140024B4FF45A
:1021F0008032C3F84423704700100140024B4FF473
:102200008032C3F80823704700100140024B4FF49E
:102210008032C3F80423704700100140014BD3F80B
:10222000040570470010014038B5FFF7D7FFFFF7EE
:10223000CFFF054D2C68214603F0FFFF04442C60BE
:1022400002F0DEFB38BD00BF5427002038B5FFF791
:10225000E5FF0446FFF7BCFF0546FFF7BFFF20463A
:10226000FFF7AEFFFFF7C2FF2146284603F0E5FF68
:10227000012805D0054B4FF40032C3F8802138BD4A
:102280000F2005F0D8FFFFF7A9FFF3E700E100E01A
:1022900038B50F4D0024C5F80845FFF79FFF0D4BDB
:1022A0004FF40032C3F88021FFF7B0FF224601212E
:1022B000112000F0ADF9112000F08CF90123064A3D
:1022C00013602B600220FFF751FF204638BD00BF8E
:1022D0000010014000E100E00810014038B5B0F105
:1022E000FF3F1ED0441E114B9C4201DC002C1BDD25
:1022F0000E4B9C4200DD0E4CFFF790FF0D4B1D680E
:10230000294603F09AFFB0F5000F00D300242044C3
:102310000130B0F5000F00D30548284403F0C3FF97
:1023200038BD00F50000DDE70024E5E7FEFF7F0093
:10233000FFFF7F005427002010B54FF02003EFF37C
:10234000118483F31188BFF36F8FFFF767FF044B8E
:10235000196803F072FF84F31188BFF36F8F10BD0B
:102360005427002038B54FF02003EFF3118583F395
:102370001188BFF36F8FFFF751FF054B1C68214693
:1023800003F05BFF204485F31188BFF36F8F38BDE6
:102390005427002010B5114C032323616361104AB8
:1023A000A261104BE3614FF4806323620023A362B8
:1023B0006362E36222660C4A62661022A2662367A9
:1023C000E36663670949E01D03F0F8FF084920460A
:1023D00003F0F4FF2023A37110BD00BF5827002095
:1023E000EC8B00001028002000280020F88B000053
:1023F000FC8B00002DE9F84304460E46154600EB21
:1024000040032D4A02EBC302936A576ABB424BD882
:1024100000EB4002284901EBC202D2F82080A8EB71
:10242000070909F1FF32954204D913449D4216D998
:1024300000203EE0DFF88080631C03EB430308EBE1
:10244000C30358682A463146384403F0E2FF3D444E
:1024500004EB440408EBC4046562012029E0431C3A
:1024600003EB4303144A02EBC30358684A46314660
:10247000384403F0CEFFA7EB08077F1907D104EB20
:1024800044040D4B03EBC4046762012011E0631C9C
:1024900003EB4303084A02EBC3033A4606EB090188
:1024A000586803F0B6FFEAE7DB1B013BAB42C1D241
:1024B0000020BDE8F88300BF58270020064B00EB42
:1024C000400203EBC202926A00EB400003EBC00043
:1024D000406A801A704700BF58270020094A936855
:1024E000986709490968D96708494B6843F08053E0
:1024F0004B60002383F31188BFF36F8F9368D86F0D
:10250000704700BF702C0020088E000000ED00E036
:1025100026498A684FF038001044EFF3098C80E8B0
:10252000F01F4FF010001EEA000F04D0D2F8C000D8
:1025300020F0040007E002F1800080EC108AD2F85D
:10254000C00050F00400C2F8C000202080F31188C1
:10255000BFF36F8F164F4FF00066CA698A603E6006
:10256000906F0023936780F31188D2F8C00010F0B9
:10257000040F05D10023E1EE103A5EF0100E05E0E5
:102580002EF0100E02F1800090EC108AEFF314830D
:1025900023F0040383F31488BFF36F8F02F1380034
:1025A00090E8F01F8CF3098870470000702C002021
:1025B00004ED00E01EF0040F0CBFEFF30880EFF312
:1025C0000980816911F8021C0229FFD001B503F0CE
:1025D00098FE01BD43B2002B08DB00F01F005B0931
:1025E000012202FA00F0024A42F82300704700BFBD
:1025F00000E100E04209054B53F8222000F01F00E3
:10260000012303FA00F01040704700BF00E100E032
:10261000013143B2002B08DB4901C9B203F1604329
:1026200003F5614383F80013704700F00F00490180
:10263000C9B2014B1954704714ED00E080B504464F
:102640000F4616461D4603F049FE384631462A46D7
:10265000044B202583F30988A04785F31188BFF335
:102660006F8FFEE7A8540020014910220A607047CE
:1026700010ED00E072B6494081F3118820BF80F36D
:10268000118862B6704700BF30BFFFF7FDBF00BFC3
:1026900008B5144B144A22F07F029A60BFF34F8FA3
:1026A000BFF36F8FD3F8882022F47002C3F888201C
:1026B000D3F8882042F4A002C3F8882003F50C73F5
:1026C0004FF040425A60BFF34F8FBFF36F8F00232C
:1026D000E1EE103A01F05CFF01F066FF00F022F934
:1026E00001F092FF00ED00E00000000001B5EFF303
:1026F0000580A0F110004FEAC0000449014409C957
:102700009847BDE801400249084700006C8300007B
:102710002129000003F0C0FE202080F31188084822
:102720004FF40061401880F30988EFF31480022110
:10273000084380F31488BFF36F8FFFF7A9FF0000F1
:10274000A8540020EFF30880EFF3098101B5724629
:1027500000F094F801BD00BF10B514460F4B9A6A03
:102760009A6A9B6A13F0020F0BD00C4B5A6B9B6A50
:1027700013F0800F05D021B1084A936A23F080033B
:102780009362064B9A6A9A6A9A6A9A6A42F0FF02C0
:102790009A6203F0C2FD2070002010BD00ED00E041
:1027A00010B51446124B9A6A9A6A9B6A13F4007F1A
:1027B0000BD00F4B9A6B9B6A13F4004F05D021B1DD
:1027C0000B4A936A23F400439362094B9A6A9B6A0B
:1027D00013F4807F01D1064B9B6A054A936A43F448
:1027E0007F43936203F099FD2070002010BD00BF6D
:1027F00000ED00E0074B9A6A9A6A9A6A9A6A9A6AA6
:102800009A6A9A6A6FEA02426FEA12429A6200205A
:10281000704700BF00ED00E000230B70144BDA6A34
:1028200012F0020221D110B50446D86A10F080409F
:1028300010D028331B7843B90E4B1B785BB90E4B75
:102840001B889BB26BB9104604E00A460121204662
:10285000FFF782FF10BD0A4601212046FFF7A0FFC7
:10286000F8E72046FFF7C6FFF4E70020704700BFF7
:1028700000ED00E029ED00E02AED00E070B59CB02D
:102880000C46224B5968C1F30801002383F31188D9
:10289000BFF36F8F02F07F43B3F17F4F15D102F08A
:1028A0000C03082B14D012F0080F0BD000260DF1EA
:1028B0006F02204603F033FD05469DF86F3053B19B
:1028C0001CB070BD04460126F1E700263446EEE751
:1028D00000263446EBE76822214601A803F099FD63
:1028E0004EB1089BC3F308025AB96FEA53236FEA4B
:1028F0004323089305E0089B23F4FF7323F00103AF
:10290000089301A9284603F0F8FCD9E700ED00E0A0
:10291000024A536943F010035361704700ED00E031
:10292000704700BF002206E002F00F01094B0B4484
:102930002021197601322F2A0ADC53B2002BF3DB57
:1029400003F1604303F56143202183F80013F1E7AD
:10295000704700BFFCEC00E010B5044601F06AFFD0
:10296000114B9B68A3420AD04FF02003EFF3118074
:1029700083F31188BFF36F8F05F0F1FB10BDEFF308
:1029800005832BB1094A536843F080535360EBE74A
:102990004FF02003EFF3118083F31188BFF36F8FA3
:1029A000FFF79CFDE0E700BF702C002000ED00E089
:1029B00000B585B0084B0193084B0293084B039375
:1029C00001AB0093074B084A0121684603F0F2FC73
:1029D00005B05DF804FB00BF00000020000000000F
:1029E00000000B060000042000000020064A906052
:1029F0000B6823F01F03034343F01003D3608B687D
:102A000043F001031361704790ED00E010B5072813
:102A100004D80446FFF7EAFF204610BD4FF000043B
:102A2000012363F302046FF3C504074B074A9B1AA3
:102A3000C3F3C90363F38F1402460549204603F02C
:102A4000B4F96FF01504E7E7FC840000EC840000A3
:102A5000088C00002DE9F84380460F46994614463D
:102A6000002509E03146E0B203F085FC044610F190
:102A7000160F22D001340135BD421EDA58F8256008
:102A80007368002BF7D0B9F1000FEBD0304603F09C
:102A900061FC0028E6D1012363F302006FF3C50057
:102AA000074B084A9B1AC3F3C90363F38F102A46E6
:102AB000054903F07AF96FF015042046BDE8F88364
:102AC000FC840000EC840000308C000010B5034C46
:102AD00001232278FFF7BEFF207010BDA42C002038
:102AE000034B05225A60BFF34F8FBFF36F8F7047C0
:102AF00090ED00E0BFF35F8F014B00225A607047FA
:102B000090ED00E038B50E4B1D68082D15D8FFF785
:102B1000F1FF0024A5420AD9094B596804EB44028D
:102B2000930019442046FFF761FF0134F2E7054B9B
:102B30001D70FFF7D5FF002038BD4FF0FF30FBE7D9
:102B4000648C0000A42C00204FF02003EFF31182CE
:102B500083F31188BFF36F8F01230649C1F8403515
:102B60004FF08041C1F8783582F31188BFF36F8F41
:102B70000020704700E0014030B108B58001034BF0
:102B800043F00103984708BD704700BF308500003F
:102B9000F0B443685F68374B1340374CA34227D0EB
:102BA00012D8062B26D004D9B3F5801F09D10124F1
:102BB00016E00BB3022B01D1042411E06FF01500D5
:102BC00046E06FF0150043E02C4CA34216D0B3F55D
:102BD000A00F01D1032403E0B3F5800F46D10224F6
:102BE00012F0100F0CD112F0200F33D0012508E0A5
:102BF0000724F5E70624F3E70024F1E70524EFE7CF
:102C00000325C2F3402312F4807F0CBF0126002667
:102C100012F4007F06D012F4006F1DD001228A400A
:102C2000C7F808254268127A01F01F0141EA4212F2
:102C30005209012A18D04FF0A04243EA460343EA62
:102C4000850343EA042301F5E07142F821300020B6
:102C5000F0BC70470025D4E712F4806FE2D0012267
:102C60008A40C7F80C25DDE7054AE6E76FF0150056
:102C7000EEE700BF0600F000060010000200400072
:102C800000030050F0B4C5684668E9686A69AB693A
:102C9000134321EA03010123002011E04FF0020C4D
:102CA0001DE0144F04F5E07457F8242022F440325C
:102CB00042EA0C4247F8242021EA030101305B007C
:102CC000A9B10B42FAD0347A00F01F0242EA441252
:102CD0002C69C44014F0010FE0D14FF0030C02F056
:102CE0001F045209012ADCD04FF0A047DAE7F0BCFC
:102CF000704700BF00030050F0B4C3684768D9684C
:102D00005A699869024321EA02017A68D2F81025CB
:102D10001869504021EA0000012200250CE00E4E07
:102D200003F5E07356F8234024F4403446F823407A
:102D300021EA02010135520061B11142FAD03C7A18
:102D400005F01F0343EA44146409012CE7D04FF057
:102D5000A046E5E7F0BC70470003005030B4194BC3
:102D6000D3F80453EDB2002300E00133072B26D83B
:102D700003F5A272134C54F82220C2F305229142AB
:102D8000F3D125FA03F212F0010FEED001229A409E
:102D9000D143BFF35B8F50E8004F0C4040E8004543
:102DA000002DF8D1BFF35B8F064903F5A27351F8EC
:102DB000230020F0010041F82300C1F8082330BCB3
:102DC000704700BF006000400023072B46D870B456
:102DD00001249C40BFF35B8F50E8005F45EA040686
:102DE00040E8006CBCF1000FF6D1BFF35B8FDD4013
:102DF00015F0010F07D00133DBB2072BE8D96FF0D4
:102E0000120070BC704703F14000800080B2154D85
:102E100003F5A27355F8236026F44F3626F4407666
:102E200045F8236055F82360090201F47C5112042F
:102E300002F440320A43324345F8232000F1804235
:102E400002F5C04200201060126855F8232042F0BD
:102E5000010245F82320C5F80443D2E76FF01200C1
:102E6000704700BF0060004070B50D46C6684368FB
:102E70001B7A01F01F0444EA431421462448FFF75B
:102E80006DFF04F01F006309012B20D04FF0A0421A
:102E900000F5E07152F8213023F4403342F821303C
:102EA000F368EB4013F0010F30D07369EB4013F07F
:102EB000010F16D0B369EB4013F0010F09D131694E
:102EC00021FA05F515F0010F09D0012202E0114A9F
:102ED000DEE7032221460E48FFF776FF17E00222C5
:102EE000F8E7316921FA05F515F0010F0CD103213E
:102EF00000F5E07052F8203023F4403343EA0143F8
:102F000042F82030002002E00221F1E7002070BDED
:102F1000482C002000030050F8B5C46845682E7A9C
:102F200001F01F0545EA4615B2F5A03F25D0B2F5E0
:102F3000005F35D0E56801268E403543E560B2F587
:102F4000A03F33D0626901258D4022EA050262610B
:102F5000B3F5C02F2FD0A26901258D4022EA0502CA
:102F6000A261B3F5802F2BD0236901228A4023EA86
:102F700002032361FFF778FFF8BD05F01F066D0916
:102F8000012D0BD04FF0A04706F5E07557F82550FE
:102F900015F0010FCBD06FF02200EDE70B4FF3E7F8
:102FA000E56801268E4025EA0605C7E76269012526
:102FB0008D402A43CBE7A26901258D402A43CFE704
:102FC000236901228A401343D3E700BF0003005066
:102FD00008B50B4B1B780BB1002008BD084B012234
:102FE0001A70002205210620FFF712FB0620FFF7CA
:102FF000F1FA044B4FF00042C3F80423ECE700BFA2
:10300000A52C00200060004070B582B00023009322
:103010000193454B1C680CB900210FE0434D284635
:10302000FFF76AFE009005F11000FFF765FE0190C2
:103030003D4B00221A601B68EEE7013107292DD8AD
:1030400001F140039B009AB201238B403848D0F82D
:1030500004030342F1D002F1804303F5C0431B682F
:10306000002BEAD001F5A273314850F82300C0F3D9
:103070004033C0F30420012505FA00F002AD05EB52
:10308000830353F8085C054343F8085C02F180436E
:1030900003F5C04300221A601B68CEE7009E2EB9DC
:1030A000019EEEB9002C35D102B070BD214B59689C
:1030B00019B10D4649B10D6807E00D4605E06DB147
:1030C0002B4605B12B6829461D460029E8D08A68A1
:1030D0003240F4D04B6815489847F0E72B46F2E7AA
:1030E000154B596819B10D4649B10D6807E00D46F9
:1030F00005E06DB12B4605B12B6829461D46002918
:10310000D0D08A683240F4D04B680C489847F0E73A
:103110002B46F2E7054C2046FFF7B4FD04F1100002
:10312000FFF7B0FDC0E700BF7C6100404800002011
:1031300000600040102C00202C2C002058000020A3
:10314000034BD3F8003413F0010FF9D0704700BFE0
:1031500000E00140024B0B6001231360704700BF89
:103160004C2C002000487047EC8C000010B503F098
:1031700030FB034C206003F028FB6060002010BD92
:103180004C2C0020034B1B68082B01D000207047FB
:103190000120704730010010034B1B68082B01D041
:1031A000002070470120704730010010084B1A685A
:1031B00004331B68082A01D000207047002B04D874
:1031C000DFE803F00100012070470020704700BFD6
:1031D00030010010084B1A6804331B68082A01D01C
:1031E00000207047002B04D8DFE803F00100012025
:1031F00070470020704700BF30010010084B1A686C
:1032000004331B68082A01D000207047002B04D823
:10321000DFE803F00100012070470020704700BF85
:1032200030010010084B1A6804331B68082A01D0CB
:1032300000207047002B04D8DFE803F001000120D4
:1032400070470020704700BF30010010034B1B681F
:10325000082B01D00020704701207047300100107A
:10326000014B024A1A6070470C0000200090D00306
:1032700008B5FFF787FF40B14FF080430022C3F845
:103280000C21C3F81021C3F83825FFF785FF00286B
:1032900046D04FF08052D2F80414604BC3F820158A
:1032A000D2F80814C3F82415D2F80C14C3F8281562
:1032B000D2F81014C3F82C15D2F81414C3F8301532
:1032C000D2F81814C3F83415D2F81C14C3F84015FA
:1032D000D2F82014C3F84415D2F82414C3F84815C2
:1032E000D2F82814C3F84C15D2F82C14C3F8501592
:1032F000D2F83014C3F85415D2F83414C3F860155A
:10330000D2F83814C3F86415D2F83C14C3F8681521
:10331000D2F84014C3F86C15D2F84424C3F87025D1
:10332000FFF744FF10B13E4B3E4A1A60FFF752FFD1
:1033300018B13D4BFB22C3F81825FFF75FFF48B1DA
:103340003A490B6823F00F03394A126802F00F0262
:1033500013430B60FFF766FF18B1364B4FF4007252
:103360001A60FFF773FF60B14FF08043D3F8003469
:1033700013F0010F05D04FF080436FF00102C3F846
:1033800000242D4AD2F8883043F47003C2F8883004
:10339000BFF34F8FBFF36F8F4FF01023D3F800327E
:1033A000002B08DB4FF01023D3F80432002B02DB94
:1033B000FFF756FF08BD214B0122C3F804251F4B20
:1033C000D3F80034002BFAD04FF010231222C3F8A8
:1033D00000221A4BD3F80034002BFAD04FF0102300
:1033E0001222C3F80422154BD3F80034002BFAD074
:1033F000124B0022C3F80425104BD3F80034002BE5
:10340000FAD0BFF34F8F0C49CA6802F4E0620C4B4C
:103410001343CB60BFF34F8F00BFFDE700C00040F8
:103420008C5600404881030000F00040E40E00404C
:10343000580200104096024000ED00E000E001401C
:103440000400FA05064B1B793BB9054B18600122B5
:103450001A7100225A71034870470348704700BF31
:10346000542C00200000AD0B0C00AD0B10B1012856
:1034700025D070474FF08042D2F8183403F0030390
:10348000D2F8182412F4803F11D14FF0804300226B
:10349000C3F818250F4B00221A601B684FF08043B9
:1034A0000222C3F80423083301221A607047012B5B
:1034B000EBD14FF080430122C3F81825EAE7064B11
:1034C00000221A601B684FF080430122C3F80423D6
:1034D0001A607047040100400001004030B583B01D
:1034E000044618B1012813D003B030BD4FF080431B
:1034F0000222C3F8082303F5827300221A601B68B6
:10350000394B01221A60012C0FD042F2107552E0A3
:1035100001234FF08042C2F8083302F58072002187
:1035200011601268314A1360EDE701238DF807300E
:1035300042F2107518E04FF08042D2F8183403F0D0
:103540000303CDF80730D2F8183413F4803F20D1AC
:103550000023002B42D09DF80730012B3ED10120E3
:1035600003F0F9F8013D39D0002CE4D0012C01D052
:103570000023EEE74FF08042D2F80C3403F0010351
:103580008DF80730D2F80C3413F4803F03D10023B8
:10359000DFE70123DDE70123DBE74FF08043D3F8CA
:1035A000183413F4803F15D10023BBB1012003F080
:1035B000D2F8013D12D0002CEFD0012C01D0002315
:1035C000F3E74FF08043D3F80C3413F4803F03D17A
:1035D0000023EAE70123E8E70123E6E7012C83D192
:1035E000034B00225A717FE70C00004004000040AA
:1035F000542C002008B51B4B1B6883B1194B0022CB
:103600001A601B684FF080430122C3F80823164B51
:103610005B7923B9144B5A711B6800209847134BF0
:103620001B689BB1114B00221A601B684FF080434E
:10363000D3F81824D3F8183412F0030F07D101235C
:103640004FF08042C2F818350832136008BD4FF0C1
:1036500080430222C3F80823034B1B6801209847CC
:10366000F4E700BF00010040542C0020040100409A
:10367000024B0022C3F80425704700BF00E0014060
:10368000024B0122C3F80425704700BF00E001404F
:10369000024B0222C3F80425704700BF00E001403E
:1036A000044BD3F8003413F0010FF9D00160BFF3DD
:1036B0005F8F704700E0014010B5044603F069F8E1
:1036C00008B9084810BDFFF7E3FF074BC3F80845EA
:1036D000054BD3F8003413F0010FF9D0FFF7C8FF02
:1036E0000248EFE70A00AD0B00E001400000AD0B1F
:1036F0000268124B9A4215D1C269A3F11023A3F1BB
:10370000EF139A4210D18368012B0FD8C36813B10D
:10371000026993420CD0436963B1826993420BD032
:10372000002070470120704701207047012070473A
:1037300001207047002070470120704755AA00FF04
:1037400070B5114B9D68B5B12846FFF7D1FF06460D
:1037500098B9EB6813B10126304670BD2C69002C76
:10376000FAD02046FFF7C4FF48B9E368AB4208D15E
:1037700025462469F3E70126EEE70126ECE701265A
:10378000EAE70126E8E700BF5C2C0020002800F0F3
:10379000928038B50546484B1B68002B6CD0464AD2
:1037A0009268002A68D0834204D8434A526813447E
:1037B000834203D8414B1B6801209847A5F12004A0
:1037C0002046FFF795FF18B13C4B1B680120984736
:1037D00055F8183C012B03D0384B1B680120984743
:1037E000002345F8183C55F8143CCBB19A68002AE0
:1037F00043D155F81C2C59680A4420325A6055F8B8
:10380000143C55F8102C1A6155F8145C2B6903B15F
:10381000DD6020220021204602F020FE23462C46B7
:1038200025691DB3AA680ABB6B686268134420331C
:1038300063602B69236163690BB323B3A2699A6147
:10384000A3690BB162695A616B696361AA69A2617C
:10385000EBB19C61A36903B15C61236903B1DC60D6
:1038600020220021284602F0F9FD2B4693B1124B8D
:103870001B6913F0020F15D138BD0023D0E7A269F0
:10388000002ADAD1E0E7A2690B4BDA60D8E70A4BED
:10389000DC60DFE7084BDB68A36103B15C61064BCA
:1038A000DC60E4E7FFF74CFF0028E5D0034B1B6822
:1038B00001209847E0E770475C2C002014000020AE
:1038C00070B54F4BDC681D68002D5AD09D68002DE7
:1038D00057D001FB00F6002800F08880002900F096
:1038E0008780B6FBF0F0884240F0848016F1040F28
:1038F00000F2828016F0030F08D026F0030504358D
:1039000034B16368AB4203D2A469F9E73546F7E7FF
:10391000002C73D0A3681BB13A4B1B680120984759
:103920006268521B232A2ED905F120016318203A20
:103930005A6000229A60DC6022691A613248605045
:103940003249D96102B1D36062695A61A169996152
:10395000002A3FD093619A6902B153610122A260AB
:103960006560236100236361A361254B1B6913F02C
:10397000010F32D104F1200532460021284602F021
:103980006DFD284670BD0123A3606369ABB1A269D8
:103990009A61A3690BB162695A6100236361A361F3
:1039A000174B1B6913F0010F0BD104F120053246B0
:1039B0000021284602F052FDE3E7A269104BDA60CD
:1039C000E7E7FFF7BDFE0028EFD00E4B1B68012094
:1039D0009847EAE70A4AD360BDE7FFF7B1FE00283F
:1039E000C8D0084B1B6801209847C3E70025C8E7EB
:1039F0000025C6E70025C4E70025C2E72546C0E745
:103A00005C2C00201400002055AA00FF669911EEDE
:103A100038B505460C4614220021134802F01EFD5D
:103A20001249134800F038F8232C1CD915F0030371
:103A300004D01C44043CC3F104031D44224600216D
:103A4000284602F00BFD084B1D605C609D60203C29
:103A50006C609A68074911609A68A1F11021A1F180
:103A6000EF11D161DA6038BD5C2C00208D37000089
:103A7000C138000055AA00FF08B5024B1B689847E3
:103A800008BD00BF1000002008B5024B1B68984716
:103A900008BD00BF18000020024B1860024B1960DF
:103AA00000207047100000201800002031B108B538
:103AB0000A46034B1B680021984708BD704700BFAA
:103AC0001C000020F8B504460D46476800F10806C2
:103AD000304603F07CFA874251D16368B3F5807FAA
:103AE0004FD80021304603F0F5FB00282ADD0021E5
:103AF000304603F044FA28B3CDB104F12C0600217E
:103B0000304603F0E7FB00281EDD0021304603F0BD
:103B100036FAC8B104F138060021304603F0DAFB6A
:103B2000002811DD0021304603F029FA60B10021A0
:103B300004F1140003F0CEFB002824DD35B9ADB943
:103B40002846F8BD124DFBE7114DF9E7002104F1BD
:103B5000440003F0BFFB002806DD002104F1500003
:103B600003F0B8FB0028EADC094DE9E7002104F185
:103B70005C0003F0AFFB002807DD0025E0E7044D03
:103B8000DEE7034DDCE7024DDAE7014DD8E700BF81
:103B900080BFFFFF70B5044600221146FFF792FF79
:103BA000E0B9064604F10805284603F0F9F97F2834
:103BB00016D914340021204603F0E1F960B1204603
:103BC00003F0EEF9012807D92946204603F03AFB15
:103BD000002801DA304670BD024EFBE7014EF9E7DE
:103BE000004EF7E700BEFFFFF0B587B004460D4674
:103BF000164600221146FFF765FF98BB03A803F0A5
:103C00002DF96268294603A803F0E7F9054630B1AB
:103C100003A803F029F915BB284607B0F0BD04F14D
:103C20000805294603A803F00DFB002802DB6FF00E
:103C30000305EDE7676804F1680300932B4604F180
:103C4000140203A9084603F0BAFE05460028DFD196
:103C50003A46314603A803F0EFF90546D8E7A5F543
:103C60008545D9E7004DD7E780BFFFFF00230360FC
:103C700043600B46B9B9194A8260194AC260194AB1
:103C80000261194A4261194A8261194AC261194A9C
:103C9000026202F17452A2F52302A2F6924242623B
:103CA000836600207047144A8260144AC26002F1A1
:103CB000794202F5740202F501620261104A426122
:103CC000104A826102F1D14202F5C01202F51E6271
:103CD000C2610D4A02620D4A4262E1E767E6096A83
:103CE00085AE67BB72F36E3C3AF54FA57F520E511D
:103CF0008C68059BABD9831FD89E05C107D57C3640
:103D000039590EF7310BC0FFA78FF964A44FFABEE3
:103D10002DE9F04FD1B00790002306E09A1C50F82F
:103D2000222008AC44F823200133072BF6D90022C7
:103D30000F2A11D811F8224001EB820043781B04AE
:103D400043EA0463847843EA0423C078034310A859
:103D500040F822300132EBE74FF0000E42E10F9BBA
:103D60000C9E4FEAF62181EAB61181EA7661194488
:103D70000E9C0D9884EA0003334063401944DFF839
:103D8000348758F82E3019440DF1400C5CF82E3071
:103D90001944089D4FEA753A8AEAB50A8AEAB55A83
:103DA000099F05EA07030A9A45EA070902EA090991
:103DB00043EA09039A440B9B01EB030951444FEA80
:103DC000F92383EAB91383EA79631C4486EA000382
:103DD00009EA030343401C440EF1010A58F82A3053
:103DE0001C445CF82A301C444FEA713383EAB10367
:103DF00083EAB15305EA010A45EA010B07EA0B0B16
:103E00004AEA0B0A534422441C444FEAF22383EA51
:103E1000B21383EA7263184486EA090313407340BD
:103E200018440EF1020A58F82A3018445CF82A3077
:103E300018444FEA743383EAB40383EAB45301EAC3
:103E4000040A41EA040B05EA0B0B4AEA0B0A534445
:103E5000074418444FEAF72383EAB71383EA7763EA
:103E60001E4489EA02033B4089EA03031E440EF123
:103E7000030A58F82A301E445CF82A301E444FEAE0
:103E8000703383EAB00383EAB05304EA000A44EAD9
:103E9000000B01EA0B0B4AEA0B0A534435441E445B
:103EA0004FEAF52383EAB51383EA7563994482EAFE
:103EB00007032B40534099440EF1040A58F82A3066
:103EC0004B445CF82A904B444FEA763989EAB609AC
:103ED00089EAB65900EA060A40EA060B04EA0B0B27
:103EE0004AEA0B0AD14419440F914B440B934FEA11
:103EF000F12989EAB11989EA71694A4487EA050911
:103F000001EA090987EA090991440EF1050A58F8FE
:103F10002A204A445CF82A904A444FEA733A8AEAD3
:103F2000B30A8AEAB35A06EA030946EA030B00EA2F
:103F30000B0B49EA0B09CA4404EB0209CDF838908F
:103F400052440A924FEAF92484EAB91484EA796463
:103F5000274485EA010409EA04046C403C440EF15C
:103F6000060A58F82A703C445CF82A703C444FEA30
:103F7000723787EAB20787EAB25703EA020A43EACE
:103F8000020B06EA0B0B4AEA0B0A574420440D9039
:103F90003C4409944FEAF02787EAB01787EA706734
:103FA0003D4481EA090900EA090981EA0901294435
:103FB0000EF1070058F8205029445CF82000014415
:103FC0004FEA743080EAB40080EAB45002EA040593
:103FD000224313402B4303440E440C960B44089396
:103FE0000EF1080EBEF10F0F7FF6B9AE10263F2E70
:103FF00000F24D820F9A0C9B4FEAF32787EAB31722
:1040000087EA73673A440E980D9D80EA05071F40C2
:1040100047403A44DFF89CB45BF826701744B31E5F
:104020001A4610AB049253F822204FEAF24484EA75
:10403000724484EA9224F21F53F822201444A6F119
:104040000F0A53F82AC04FEABC4282EAFC1282EA05
:10405000DC021444A6F1100253F82220224443F853
:1040600026203A4408994FEA713C8CEAB10C8CEA5C
:10407000B15E099F3C460C400A990091089941EABB
:10408000070C009901EA0C0C44EA0C0CF4440B9C5C
:10409000144462444FEAF42888EAB41888EA746841
:1040A00080440C9981EA050904EA090985EA0909AD
:1040B000C844711C5BF821008044701E059053F8C1
:1040C00020004FEAF04C8CEA704C8CEA902CB01F28
:1040D00053F820008444A6F10E0E53F82E904FEAB8
:1040E000B94080EAF91080EAD900604453F82A9078
:1040F0004844029143F8210008EB00094FEA723866
:1041000088EAB20888EAB258089901EA020041EA4E
:10411000020C019707EA0C0C40EA0C0CC44400980E
:1041200000EB0908E1444FEAF82080EAB81080EA81
:10413000786005440C9981EA040008EA00004840D0
:104140000544B01C01465BF82000054453F82600E6
:104150004FEAF04C8CEA704C8CEA902C701F53F8AC
:1041600020008444A6F10D0A53F82A004FEAB0401B
:1041700053F82A7080EAF71080EAD700604453F8B9
:104180002EC06044039143F8210005444FEA793C76
:104190008CEAB90C8CEAB95C02EA090042EA090E21
:1041A000089901EA0E0E40EA0E008444019F07EBD5
:1041B000050E05EB0C0700974FEAFE2080EABE10C3
:1041C00080EA7E600C990D1884EA08010EEA01016C
:1041D00061406818F71C5BF827100144029D53F8F2
:1041E00025004FEAF04585EA704585EA9025301FA5
:1041F00053F8200005440195A6F10C0C53F82C004F
:104200004FEAB04053F82C5080EAF51080EAD50010
:10421000019D284453F82A502844069743F8270064
:10422000014400984FEA7035074685EAB00585EAF3
:10423000B05509EA000049EA070A02EA0A0A40EA18
:104240000A000544089800EB010A294401914FEA4D
:10425000FA2585EABA1585EA7A652C4488EA0E05BE
:104260000AEA050588EA05052544341D02945BF831
:1042700024000544039953F821404FEAF44080EAB2
:10428000744080EA9420F41E53F824402044A6F1A0
:104290000B0753F827104FEAB14484EAF11484EA7B
:1042A000D104044453F82C002044029943F821001F
:1042B000054401994FEA713C8CEAB10C8CEAB15C7F
:1042C000009804460C4001460198084309EA0000A2
:1042D000204360442A440F9228440B904FEAF22C6A
:1042E0008CEAB21C8CEA726CC4448EEA0A0803920F
:1042F00002EA08088EEA0808C444741D21465BF8E7
:104300002440A444069D53F825504FEAF54484EA1E
:10431000754484EA9524049A53F822502C44A6F15B
:104320000A0853F828204FEAB24585EAF21585EAD3
:10433000D205254453F827402C44049143F82140EA
:1043400064444FEA703787EAB00787EAB0570199AB
:1043500001EA000541EA000C009901EA0C0C45EA6B
:104360000C052F4409EB040CCDF838C03C440A94EA
:104370004FEAFC2787EABC1787EA7C677744039DEE
:104380008AEA050E0CEA0E0E8AEA0E0E774406F152
:1043900006095BF829502F44029D53F825504FEA37
:1043A000F54E8EEA754E8EEA952E059A53F82250F8
:1043B000AE44A6F10902029253F8225029464FEA70
:1043C000B54585EAF11585EAD105754453F828E02D
:1043D000754443F829502F444FEA743585EAB405F3
:1043E00085EAB45500EA040940EA040E019A02EA9B
:1043F0000E0E49EA0E09A9440099CD190D954F44B6
:1044000009974FEAF52E8EEAB51E8EEA756ED644F0
:10441000039A82EA0C0C05EA0C0C82EA0C02724444
:1044200006F107085BF8285002EB050E049953F8D3
:1044300021504FEAF54282EA754282EA952253F80A
:1044400026100A44A6F1080553F825C04FEABC45DA
:1044500085EAFC1585EADC052A44029D53F82550BF
:104460002A4443F8282072444FEA773383EAB7039B
:1044700083EAB75304EA0705274338402843184422
:10448000019911440C91104408900836AFE50023BF
:10449000079809E008AA52F82340991C50F82120F7
:1044A000224440F821200133072BF3D9002051B0DA
:1044B000BDE8F08FF48C000070B50646114B53F840
:1044C000205000E00835731C0E4A52F82330AB42EE
:1044D00017D96C682B68204698470028F2D0002C2A
:1044E000F0D00949094BE41A2411600904F01F04B3
:1044F00051F82030012202FA04F41C4341F8204014
:10450000E0E770BDF48D0000780000202800002056
:10451000084BC01A0011420900F01F00064B53F867
:104520002220012303FA00F002420CBF18460020AB
:10453000704700BF280000207800002038B50546ED
:10454000114C00E01034114B9C4208D02046FFF77C
:10455000DFFF0028F6D02368AB42F3D112E00A4C0B
:1045600000E01034094B9C420BD02046FFF7D0FFEF
:104570000028F6D02168284601F029FF0028F0D154
:1045800000E00024204638BD2800002078000020EC
:1045900008B50348034A121A002101F05FFF08BD65
:1045A00090000020A82C002008B50648064A121AE0
:1045B000064901F02EFF064A0649074801F029FF87
:1045C00008BD00BF000000208C000020108E0000FD
:1045D00000000000108E00000000002008B5084B0D
:1045E00001221A700220FFF767FF0320FFF764FF24
:1045F000FBF702FF034A137B23F00103137308BD8B
:10460000A62C00209000002008B5FDF77FF9144B80
:1046100083F30888134C636943F400736361E023F8
:1046200084F822300025E57725766576A576636ADD
:1046300043F4E0236362FEF76BF9FEF715F84FF0E1
:10464000FF33A362E3622846FFF736FF0120FFF73E
:1046500033FF2B462A4629460348FDF7EFFF00BFEC
:10466000A85C002000ED00E0DD45000010B5064C20
:104670000020064B9C4206D2204603F04BFD00284A
:1046800001DB1C34F5E710BD7C0000207C0000201D
:10469000084681B908B5EFF305833BB9084BDA69E1
:1046A0009B689A4202D0FDF719FF03E080F311885E
:1046B000BFF36F8F08BD81F31188BFF36F8F704711
:1046C000702C00200A4B834208D04A680B681360A4
:1046D0004A685A6000230B604B607047203B9B6820
:1046E0008B42F2D14B7B13F01F0FEED0F5E700BFEA
:1046F000902C002038B504460E4D05F1200003F043
:104700003CFDAA68537B13F0200F02D043F008034E
:10471000537348B15CB9537B13F01F0F07D1836902
:104720002BB9044BDA6104E0024BD868F2E7014B85
:10473000D86138BD702C002038B50546437B13F096
:104740001F0F05D183690BB1002302E0012300E0B4
:1047500000230BB3154B53F8204F9C4224D064B177
:104760002146284603F0F1FCB8B934B10F4B5B6A1F
:104770009C4202D02468002CF1D10C4B03F12002A2
:104780002A605A6A6A6015605D626B7B63F07F0322
:104790006B730020FFF7AEFF38BD63686B602C6061
:1047A00063681D606560F0E70024D8E7702C002086
:1047B00038B50446183003F079FD00234FF020028D
:1047C000EFF3118582F31188BFF36F8F10E0637BE5
:1047D00043F010036373154B9868A04214BF002088
:1047E0000120FFF787FF85F31188BFF36F8F012347
:1047F00063B994F90D30002BE9DA21460C48FFF734
:1048000061FF637B03F07F036373E0E7074B9B6803
:10481000A34200D038BD4FF02003EFF3118083F3A3
:104820001188BFF36F8F03F09AFCF3E7702C002020
:10483000902C002070B50546036E03B1984705F132
:10484000180003F033FD00234FF02002EFF3118630
:1048500082F31188BFF36F8F1FE0012227E0294602
:104860002A48FFF72FFF6B7B03F07F036B7324E075
:1048700013F0020F29D0284603F063FC2946FFF706
:1048800021FF6B7B23F002036B730023AB601CE002
:1048900086F31188BFF36F8F01231A46002B34D1A2
:1048A0006B7B13F01F0F02D1A9690029D5D012F03C
:1048B000010FDDD013F0800FD1D1154B9868A842BD
:1048C00014BF00200120FFF715FF6B7B43F00803A6
:1048D0006B7305F130032C6BA342D9D0002CD7D0D9
:1048E00004F1180003F0E2FC204603F02AFC214604
:1048F000FFF7E8FE637B23F0020363730023A360EA
:10490000E3672046FFF718FFE3E770BD902C002017
:10491000702C002038B5B1F1FF3F08BFB0F1FF3F68
:104920001AD003F010FC0446C5176901430141EA9F
:10493000D062181A62EB05039A0042EA9072810075
:104940001346081945EB0303DA0042EA5072C1002E
:10495000C80B40EA424038BD034B9868FFF728FF78
:104960004FF0FF30F7E700BF702C0020014B986834
:10497000704700BF702C002038B504464FF020036C
:10498000EFF3118583F31188BFF36F8F03F012FCEF
:1049900040B10022C26703F0F7FB29460648FFF743
:1049A00077FE38BDA368E268934203D00122134426
:1049B000A360F2E70022FAE79C2C0020034B186862
:1049C000984200D070470020FCE700BF2000002084
:1049D00030B1044A5268904201D00068704700200C
:1049E000704700BF2000002008B5044B1B680BB1C6
:1049F000002008BDFDF7A0FCFBE700BF9C2C0020B9
:104A0000F8B54FF02003EFF3118583F31188BFF35E
:104A10006F8F284B1860FFF7D1FF044650B3D0E9E1
:104A20000467244B1B68D917B34271EB070221DBE3
:104A3000214AD2E90001801941EBE671C2E9000187
:104A40009B1B1C4A136000220023C4E90423204658
:104A500003F0F5FB85F31188BFF36F8FA368204641
:104A600098474FF02003EFF3118583F31188BFF3CC
:104A70006F8FD0E744B10F4B1968D4E90423521A61
:104A800063EBE173C4E904230B480A490C68D0E9DD
:104A90000023121943EBE473C0E9002300240C60E7
:104AA00003F0E5FB2146FDF719FC85F31188BFF300
:104AB0006F8FF8BD9C2C00205801002010B5064CCB
:104AC000064B9C4206D2A2686168204603F00CFCAB
:104AD0001434F5E7002010BD7C0000207C0000208D
:104AE00070B582B0044601A90079FBF713FDA568F3
:104AF000019B1D4423681C892E194FF02002EFF3FF
:104B0000118382F31188BFF36F8F01F095FBFCF7DF
:104B100093FD2B5983F30888002383F3148873686B
:104B2000984702B070BD19B1012903D10220704726
:104B3000012070476FF015007047FF20704770B577
:104B400016461D4601F01BFA50B90021A94205D2B4
:104B5000745CFF2C06D10131C9B2F7E7012001E0F6
:104B60004FF0FF3070BD2DE9F0439DB015469946DA
:104B7000249FDDF89480279C01A803F0B8F9002158
:104B800001A8FFF773F814B1289B002B06DC2B89D2
:104B9000EE6833446E891E44002513E01A46214610
:104BA00001A803F0AAF9F2E723463A462946484607
:104BB00001F0E5F9034688B92246394601A803F019
:104BC0009CF92544B54204D2741B4445ECD94446B3
:104BD000EAE7269901A803F0D3F9002318461DB08F
:104BE000BDE8F0832DE9F04383B000284AD00C469D
:104BF000174699460646002947D0002A48D00D8915
:104C0000CB681D4404230DEB03022946384601F00E
:104C1000B6F9804600283ED1BDF8042046F60813B8
:104C20009A421ED06389002B3BD1BDF8042046F682
:104C300007139A4238D134607760A6F808909DF83F
:104C40002830B37263892B44F36063892B44BDF829
:104C500006201344736104353561404603B0BDE856
:104C6000F0836389BDF806108B4217D104230DEB46
:104C700003022944384601F082F90028D5D04FF0CC
:104C8000FF38EAE74FF0FF38E7E74FF0FF38E4E797
:104C90004FF0FF38E1E74FF0FF38DEE74FF0FF3825
:104CA000DBE74FF0FF38D8E74FF0FF38D5E70028B3
:104CB0004DD0F0B583B00F4616461D460446036836
:104CC000002B48D043680BBB4FF0FF313AE0042380
:104CD0000DEB03022169606801F051F901460028DB
:104CE0003CD1A37A1BB12269E3689A4239D2238965
:104CF0004FF6FF72934217D0BDF80420934213D0B1
:104D0000BDF80600236918440430206120696369F6
:104D100098421AD223685B89002BD8D0E36883427B
:104D2000D5D104302061D2E715B1BDF804302B8015
:104D3000236904333B60BDF8063033802269134495
:104D400004332361084603B0F0BD0121FAE74FF0B8
:104D5000FF31084670474FF0FF31F3E74FF0FF3166
:104D6000F0E70121EEE72DE9F04184B004460E465C
:104D70001546302303AA2946304601F096FDA8BB0C
:104D80003368039A1344AB4233D104F108073A461F
:104D90002946304601F09CFD28BB04F11408424628
:104DA0002946304601F094FDE8B9384602F00FF983
:104DB00060603368AB421FD1CDF8048000220092BE
:104DC00013463946204603F00DF8C0B92046FEF7D9
:104DD000E1FE0546B0B9384602F0F9F860602846B1
:104DE00004B0BDE8F0816FF00205F8E74FF0FF3541
:104DF000F5E76FF00105F2E76FF00305EFE76FF0FD
:104E00000405ECE76FF00505E9E7F0B5A5B0064647
:104E10000F4600230893DF2407E025462A4669460B
:104E2000304601F0F6FA2E44641B002C1DDD09A863
:104E300003F05DF8002109A8FEF718FF202239468B
:104E400009A803F05AF8042208A909A803F055F8A4
:104E5000694609A803F094F89DF8233001338DF8D2
:104E600023301F2CD9DD2025D8E725B0F0BD01283F
:104E700000D170470220FCE72DE9F04383B00646DD
:104E8000884617461C4601F0F7F8082C20D805463E
:104E9000082802D94FF0FF301CE03046FFF74DFEE6
:104EA0008146A54200D2254622463946684601F091
:104EB000B0FA2A1B49460DEB040001F0CFFA2B464D
:104EC0006A464146304601F079F818B1012001E008
:104ED0004FF0FF3003B0BDE8F08300B583B08DF82C
:104EE0000420012301AAFFF7C7FF03B05DF804FB0C
:104EF00004280AD0052803D1481E18BF0120704796
:104F0000884214BF0020012070470120704700EB49
:104F10004000C001704708B5FFF7F9FF303008BD09
:104F20000B78013BDBB2012B02D84FF4C070704705
:104F30004FF0FF30704710B5044601F09DF8FFF7C1
:104F4000EAFFA368181A10BD80682838704730B58A
:104F500087B005460C468168102302AA1039FFF776
:104F6000EEFD00284ADB01283CD1032323702846AC
:104F7000FFF7EAFF014601230DF107022846FFF77C
:104F8000DEFD00283DDB9DF8073003F00F02627064
:104F90001B092371012801D0042A03D9012363705E
:104FA00000232371A9680123A21C20392846FFF79A
:104FB000C6FD002827DB012819D0A078FFF757FF8E
:104FC000A070A9680123E21C18392846FFF7B7FD35
:104FD00000281ADB01280DD0E078FFF748FFE070C9
:104FE00000200CE002A8FBF74FFC2070BFE7032372
:104FF000A370E6E70323E370002000E0012007B080
:1050000030BD0120FBE70120F9E70120F7E710B5EB
:1050100082B00C4601A9C0B2FCF73EFF18B10124D2
:10502000204602B010BD21460198FFF790FF0446CC
:10503000019800F0A3FFF3E730B583B00C4601A957
:10504000FBF72EFC054610B1284603B030BD019D8C
:105050002846FFF779FF04232246A0F108012846DD
:1050600000F08DFF0546019800F088FFECE708B5D9
:10507000816801222039FFF730FF08BD08B581683B
:1050800001221839FFF729FF08BD10B582B0044688
:1050900041EA02118DF80710FFF756FF0146012380
:1050A0000DF107022046FFF7E7FE02B010BD10B574
:1050B00082B004460191FFF747FF04230DEB030282
:1050C000A0F108012046FFF7D7FE02B010BD08B5D9
:1050D000006A00F0D1FF08BD2DE9F04182B006461C
:1050E0000C4617460020FFF71EFD01A9C0B2FCF7D1
:1050F000D3FE40B14FF00108019800F03FFF404659
:1051000002B0BDE8F0812C2303FB04631D89DB683A
:105110001D4404236A462946019800F030FF80466A
:1051200040BB2C2101FB04646489BDF8002046F6D5
:1051300008139A420CD004BBBDF8002046F60713B2
:105140009A421DD12544BDF802301D443D60D3E78D
:10515000BDF802108C4202D04FF00308CCE70423C4
:105160006A462944019800F00AFF0028E4D04FF075
:105170000108C1E74FF00108BEE74FF00308BBE7A5
:105180004FF00308B8E7F0B583B007460C4600209F
:10519000FFF7C9FC01A9C0B2FCF77EFED0B90646F4
:1051A0000198FFF7CAFC0546019800F0E7FE2C21A4
:1051B00001FB04710023032B05D8CA5C954207D17B
:1051C0000133DBB2F7E701233BB1304603B0F0BD5A
:1051D0000023F9E74FF0FF36F7E74FF0FF36F4E72B
:1051E00010B582B00346084680220192012905D0FD
:1051F00002290ED11A6D03F1540402E05A6A03F138
:10520000280401A9FCF75CFE08B9019B236002B0E9
:1052100010BD0120FBE738B504460121FFF7E0FF90
:1052200010B10125284638BD02212046FFF7D8FFDE
:10523000054608B10125F5E72046FFF748FFE06580
:10524000F0E7F8B505460F4616460024012C10DCA1
:1052500033462C2202FB045221462846FBF742FF2C
:10526000034608B90134F1E7002C03DD17B9002328
:1052700000E000231846F8BD70B505460E46002034
:10528000FBF752FB0446022805D0042803D003286C
:1052900001D0204670BD324601212846FBF70CFCA8
:1052A000012803D00028F4D00524F2E70446F0E7F3
:1052B000002383718360C360012343710360037122
:1052C000C37170474379012B01D0002070470368F8
:1052D000012B01D0002070470379012B01D0002061
:1052E00070470120704738B50546FBF749FC95F833
:1052F0005840E31EDBB2012B0DD9022C03D0042C45
:1053000001D0032C06D1002000F0D8F810B1FF2303
:1053100085F8583038BD002000F0E3F80028ECD0C4
:10532000FF2485F85840EAE770B584B004460E467D
:1053300003A90120FCF7B0FD30B10124039800F06F
:105340001DFE204604B070BD0398FFF7F4FD05462E
:10535000E16D304600F0E5F82C18039800F08CFE63
:1053600005460398FFF7E9FB0146082201A801F072
:1053700075F833798DF804302B4601AA214603983D
:1053800000F01CFE04460028D8D00124D6E708B55A
:1053900000F044FE08BD2DE9F04706460F46002107
:1053A0000846FFF7C0FB044601210020FFF7BBFBC6
:1053B0003B789C4223D0984223D1012399462C224A
:1053C00002FB03639C6A013CF06DFFF7A4FD80467D
:1053D00000252C2303FB09635B6A03EBC402D2F8AC
:1053E00004A053F834101B685246C91A3846FFF718
:1053F000CEFF013C5544A845EBD8BDE8F08700231B
:10540000DCE70120F9E730B583B00C461546694664
:105410000220FFF7FCFDE97901290DD19DF8033049
:10542000012B0ED0A9682046FFF741FE2046FBF76E
:105430006DFA002003B030BD00222046FFF725FEA4
:10544000ECE72046FFF71AFEECE770B582B006469F
:105450000D46FBF79DFF0446E86060B3022829D1A2
:1054600001A90120FCF718FD08B1012423E02A4618
:1054700031460198FBF792FE044618B1019800F0FE
:105480007DFD18E00198FFF75FFD014601230DF156
:1054900003020198FFF753FB012806D09DF8033063
:1054A00003F00F03EB710446E8E701238DF80330A6
:1054B0002046F3E70724204602B070BD10B582B045
:1054C00001A90120FCF7E8FC18B10124204602B034
:1054D00010BD0198FFF7CBFD0446019800F04EFD8A
:1054E000F4E710B584B003A90120FCF7D5FC18B18E
:1054F0000124204604B010BD01A90398FFF727FD41
:10550000044660B99DF80730032B03D0039800F0E0
:1055100035FDEEE70398FFF7B1FD0446F6E70124F9
:10552000F4E730B44379012B10D0022201FB02F4DE
:10553000012B0DD0CD010379013B0268013A02FB3A
:1055400004F201FB0321481930BC70470122EDE74A
:105550000025F0E7024658B1436803F00303012B2E
:1055600003D0032B07D1036843B10020906070473C
:105570006FF0150070476FF0150070476FF0150061
:1055800070470346426802F003028160032A03D198
:10559000006800225A6070470020FAE770B584B0B6
:1055A0009DF82040E51E18BF0125012C0AD02024BB
:1055B000099E03960294019510240094FCF75CF870
:1055C00004B070BD3024F3E770B584B09DF820407E
:1055D000E51E18BF0125012C0AD02024099E039640
:1055E000029401950A240094FCF746F804B070BDBB
:1055F0003024F3E701207047C80F70472DE9F04FC2
:1056000087B006460D461446059300274FF0FF3A33
:10561000BB46B84602E02946B0470134207800284E
:1056200000F07481B8F1000F08D12528F3D10027CC
:105630004FF0FF3ABB464FF00108EEE70246A0F1FB
:105640002503552B00F25081DFE813F048014E018D
:105650004E014E014E014E014E014E0157014E01C9
:105660004E0156005D005D005D005D005D005D0067
:105670005D005D005D004E014E014E014E014E0188
:105680004E014E014E014E014E014E014E014E01A2
:105690004E014E014E014E014E014E014E014E0192
:1056A0004E014E014E014E014E014E014E014E0182
:1056B0004E01ED004E014E014E014E014E014E01D4
:1056C0004E014E014E014E013F0187004E014E0139
:1056D0004E01700087004E014E0170004E014E01D8
:1056E0004E01E3004E014E011A014E0187004E01AA
:1056F0004E01ED004E017000BAF1000F03DABBF16C
:10570000000F00F0FD80BAF1000F0CDB0AEB8A0AF3
:1057100002EB4A0AAAF1300ABBF1000F7FF47DAF19
:105720004FF0020B79E7A2F1300AF5E768280BD0B9
:105730006C280ED05FB129462520B0472946207835
:10574000B0474FF0000868E7682FF1D148200746BE
:1057500063E76C2FEED14C20F9E77A2F0DD06C2F38
:1057600030D04C2F36D075284BD0059B1A1D059292
:105770001B6898464FEAE37906E0059B1A1D0592DF
:105780001B6898464FEAE3792378752B0DD0404685
:105790004946FFF731FF40B129462D20B047D8F1E7
:1057A000000869EB49090AF1FF3ACDF804A0CDF8E9
:1057B00000B042464B4629463046FFF705FF4FF002
:1057C00000082AE7059B1A1D05921B6898464FEAB8
:1057D000E379D9E7059B073323F0070303F10802B8
:1057E00005921A685B680392049329463046FFF7D6
:1057F00001FF002800F08780DDF80C80DDF81090B4
:10580000C2E7059B1A1D05921B6898464FF00009D8
:10581000BAE729463020B04729467820B0474FF0F4
:10582000080A4FF0010B2378702B09D06C2F17D08A
:105830004C2F1BD0059B1A1D05921A68002304E00B
:10584000059B1A1D05921A680023CDF804A0CDF817
:1058500000B029463046FFF7A1FE4FF00008DCE615
:10586000059B1A1D05921A680023EEE7059B073376
:1058700023F0070303F1080205921A685B68E4E766
:10588000059B1A1D0592D3F80090C84603E008F165
:1058900001082946B04798F800000028F7D1BBF16D
:1058A000030F02D04FF00008B7E6A8EB0903AAEBFC
:1058B000030303E029462020B047434603F1FF38A5
:1058C000002BF7DC4FF00008A7E6059B1A1D059298
:1058D00029461868B0474FF000089EE62946252063
:1058E000B0474FF0000898E629462520B0472946E2
:1058F0002078B0474FF000088FE64FF0030B8CE69E
:105900004FF0010B89E64FF0000886E607B0BDE8CE
:10591000F08F01F00703018B21F007011943018388
:1059200070472DE9F04106460F469046816819B14F
:105930000C4631B10C6804E00C4602E023462146D7
:105940001C4659B14D6843463A463046A847002C9C
:10595000F4D02346002CF2D02368F0E7BDE8F081B4
:10596000038B13F0070303D102680AB103207047C9
:10597000022B03D0012B06D000207047428B002A57
:10598000F8D10420704703680BB105207047002050
:10599000704738B504460D46038B002A07DB03F039
:1059A00007035A1F012A0ED9042B32D038BDD0E983
:1059B000000185E803000023236063600121204685
:1059C000FFF7A7FFF2E7D0E9000185E80300002216
:1059D00022606260062B17D12B683BB1628B0132CB
:1059E0006283002BF9D01B68002BF6D102212046E0
:1059F000FFF78FFF2046FFF7B3FF0028D6D0238B99
:105A000043F020032383D1E700212046FFF781FFE5
:105A1000F0E70021FFF77DFF2046FFF7A1FF0028F8
:105A2000C4D0238B43F020032383BFE758B110B5C4
:105A30000C4659B1081DFFF78DFD18B9A36833F066
:105A4000030306D110BD6FF0150070476FF015000D
:105A5000F8E76FF01500F5E72DE9F04107460C4631
:105A600016461D461946201DFFF78BFD28B18046BE
:105A70002B46324621463846C047BDE8F0812DE925
:105A8000F84381460C4690461F4605E065603B465C
:105A900042464846FFF7E0FF216829B10D682560BE
:105AA00066688E42F3D1F1E7BDE8F88310B54FF098
:105AB0002004EFF3118284F31188BFF36F8F4161EB
:105AC0000121FBF745FE10BD034668B179B10A68B4
:105AD00082B14A688AB10020186058609860D86026
