:020000040000FA
:10C000003DB8F39600000000000200001C1601007D
:10C01000000000000102000000000000000000001D
:10C020000000000000000000000000000000000010
:10C030000000000000000000000000000000000000
:10C0400000000000000000000000000000000000F0
:10C0500000000000000000000000000000000000E0
:10C0600000000000000000000000000000000000D0
:10C0700000000000000000000000000000000000C0
:10C0800000000000000000000000000000000000B0
:10C0900000000000000000000000000000000000A0
:10C0A0000000000000000000000000000000000090
:10C0B0000000000000000000000000000000000080
:10C0C0000000000000000000000000000000000070
:10C0D0000000000000000000000000000000000060
:10C0E0000000000000000000000000000000000050
:10C0F0000000000000000000000000000000000040
:10C10000000000000000000000000000000000002F
:10C11000000000000000000000000000000000001F
:10C12000000000000000000000000000000000000F
:10C1300000000000000000000000000000000000FF
:10C1400000000000000000000000000000000000EF
:10C1500000000000000000000000000000000000DF
:10C1600000000000000000000000000000000000CF
:10C1700000000000000000000000000000000000BF
:10C1800000000000000000000000000000000000AF
:10C19000000000000000000000000000000000009F
:10C1A000000000000000000000000000000000008F
:10C1B000000000000000000000000000000000007F
:10C1C000000000000000000000000000000000006F
:10C1D000000000000000000000000000000000005F
:10C1E000000000000000000000000000000000004F
:10C1F000000000000000000000000000000000003F
:10C2000068590020E5230100CB950100212401009D
:10C21000212401002124010021240100000000004C
:10C22000000000000000000000000000D12101001B
:10C23000212401000000000029210100A595010032
:10C24000A5230100A5230100A5230100A5230100CA
:10C25000A5230100A5230100A5230100A5230100BA
:10C26000A5230100A5230100A5230100A5230100AA
:10C27000A5230100A5230100A5230100A52301009A
:10C28000A5230100A5230100A5230100A52301008A
:10C29000A5230100A5230100A5230100A52301007A
:10C2A000A5230100A5230100A5230100A52301006A
:10C2B000A5230100A5230100A5230100A52301005A
:10C2C000A5230100A5230100A5230100A52301004A
:10C2D000A5230100A5230100A5230100A52301003A
:10C2E000A5230100A5230100A5230100A52301002A
:10C2F000A5230100A5230100A5230100A52301001A
:10C3000081F0004102E000BF83F0004330B54FEA06
:10C3100041044FEA430594EA050F08BF90EA020F73
:10C320001FBF54EA000C55EA020C7FEA645C7FEA06
:10C33000655C00F0E2804FEA5454D4EB5555B8BF29
:10C340006D420CDD2C4480EA020281EA030382EA9A
:10C35000000083EA010180EA020281EA0303362D2C
:10C3600088BF30BD11F0004F4FEA01314FF4801CFF
:10C370004CEA113102D0404261EB410113F0004F11
:10C380004FEA03334CEA133302D0524263EB4303C8
:10C3900094EA050F00F0A780A4F10104D5F1200E66
:10C3A0000DDB02FA0EFC22FA05F2801841F10001C1
:10C3B00003FA0EF2801843FA05F359410EE0A5F195
:10C3C00020050EF1200E012A03FA0EFC28BF4CF0C6
:10C3D000020C43FA05F3C01851EBE37101F000457C
:10C3E00007D54FF0000EDCF1000C7EEB00006EEB89
:10C3F0000101B1F5801F1BD3B1F5001F0CD3490813
:10C400005FEA30004FEA3C0C04F101044FEA445269
:10C4100012F5800F80F09A80BCF1004F08BF5FEAF0
:10C42000500C50F1000041EB045141EA050130BDD0
:10C430005FEA4C0C404141EB0101013C28BFB1F5E2
:10C44000801FE9D291F0000F04BF01460020B1FA2D
:10C4500081F308BF2033A3F10B03B3F120020CDA00
:10C460000C3208DD02F1140CC2F10C0201FA0CF0DE
:10C4700021FA02F10CE002F11402D8BFC2F1200C43
:10C4800001FA02F120FA0CFCDCBF41EA0C019040F9
:10C49000E41AA2BF01EB0451294330BD6FEA040442
:10C4A0001F3C1CDA0C340EDC04F11404C4F120022D
:10C4B00020FA04F001FA02F340EA030021FA04F33F
:10C4C00045EA030130BDC4F10C04C4F1200220FA96
:10C4D00002F001FA04F340EA0300294630BD21FAD4
:10C4E00004F0294630BD94F0000F83F4801306BF9A
:10C4F00081F480110134013D4EE77FEA645C18BF8E
:10C500007FEA655C29D094EA050F08BF90EA020F24
:10C5100005D054EA000C04BF1946104630BD91EA1C
:10C52000030F1EBF0021002030BD5FEA545C05D11F
:10C530004000494128BF41F0004130BD14F580045E
:10C540003CBF01F5801130BD01F0004545F0FE41D2
:10C5500041F470014FF0000030BD7FEA645C1ABF07
:10C56000194610467FEA655C1CBF0B46024650EA3E
:10C57000013406BF52EA033591EA030F41F400216A
:10C5800030BD00BF90F0000F04BF0021704730B5F0
:10C590004FF4806404F132044FF000054FF00001C5
:10C5A00050E700BF90F0000F04BF0021704730B586
:10C5B0004FF4806404F1320410F0004548BF40425B
:10C5C0004FF000013EE700BF42004FEAE2014FEAB0
:10C5D00031014FEA02701FBF12F07F4393F07F4F8B
:10C5E00081F06051704732F07F4208BF704793F08E
:10C5F0007F4F04BF41F40021704730B54FF46074A1
:10C6000001F0004521F000411CE700BF50EA0102A3
:10C6100008BF704730B54FF000050AE050EA01024C
:10C6200008BF704730B511F0004502D5404261EBBC
:10C6300041014FF4806404F132045FEA915C3FF4FD
:10C64000D8AE4FF003025FEADC0C18BF03325FEA9A
:10C65000DC0C18BF033202EBDC02C2F1200300FA4B
:10C6600003FC20FA02F001FA03FE40EA0E0021FA70
:10C6700002F11444BDE600BF70B54FF0FF0C4CF45E
:10C68000E06C1CEA11541DBF1CEA135594EA0C0F10
:10C6900095EA0C0F00F0DEF82C4481EA030621EA4B
:10C6A0004C5123EA4C5350EA013518BF52EA033586
:10C6B00041F4801143F4801338D0A0FB02CE4FF038
:10C6C0000005E1FB02E506F00042E0FB03E54FF068
:10C6D0000006E1FB03569CF0000F18BF4EF0010E60
:10C6E000A4F1FF04B6F5007F64F5407404D25FEA5C
:10C6F0004E0E6D4146EB060642EAC62141EA55510F
:10C700004FEAC52040EA5E504FEACE2EB4F1FD0C50
:10C7100088BFBCF5E06F1ED8BEF1004F08BF5FEACE
:10C72000500E50F1000041EB045170BD06F0004680
:10C7300046EA010140EA020081EA0301B4EB5C042D
:10C74000C2BFD4EB0C0541EA045170BD41F4801125
:10C750004FF0000E013C00F3AB8014F1360FDEBF4A
:10C76000002001F0004170BDC4F10004203C35DA26
:10C770000C341BDC04F11404C4F1200500FA05F3A9
:10C7800020FA04F001FA05F240EA020001F000424A
:10C7900021F0004110EBD37021FA04F642EB0601C0
:10C7A0005EEA430E08BF20EAD37070BDC4F10C04EA
:10C7B000C4F1200500FA04F320FA05F001FA04F2AE
:10C7C00040EA020001F0004110EBD37041F100019A
:10C7D0005EEA430E08BF20EAD37070BDC4F12005A5
:10C7E00000FA05F24EEA020E20FA04F301FA05F20D
:10C7F00043EA020321FA04F001F0004121FA04F2B5
:10C8000020EA020000EBD3705EEA430E08BF20EA84
:10C81000D37070BD94F0000F0FD101F000464000BE
:10C8200041EB010111F4801F08BF013CF7D041EA40
:10C83000060195F0000F18BF704703F00046520044
:10C8400043EB030313F4801F08BF013DF7D043EA15
:10C850000603704794EA0C0F0CEA135518BF95EACB
:10C860000C0F0CD050EA410618BF52EA4306D1D152
:10C8700081EA030101F000414FF0000070BD50EA71
:10C88000410606BF1046194652EA430619D094EAFB
:10C890000C0F02D150EA013613D195EA0C0F05D1E5
:10C8A00052EA03361CBF104619460AD181EA030139
:10C8B00001F0004141F0FE4141F470014FF00000F1
:10C8C00070BD41F0FE4141F4780170BD70B54FF08C
:10C8D000FF0C4CF4E06C1CEA11541DBF1CEA13550C
:10C8E00094EA0C0F95EA0C0F00F0A7F8A4EB0504EE
:10C8F00081EA030E52EA03354FEA013100F08880E5
:10C900004FEA03334FF0805545EA131343EA1263AD
:10C910004FEA022245EA111545EA10654FEA002662
:10C920000EF000419D4208BF964244F1FD0404F51B
:10C93000407402D25B084FEA3202B61A65EB030577
:10C940005B084FEA32024FF480104FF4002CB6EB34
:10C95000020E75EB030E22BFB61A754640EA0C00B4
:10C960005B084FEA3202B6EB020E75EB030E22BFF4
:10C97000B61A754640EA5C005B084FEA3202B6EB35
:10C98000020E75EB030E22BFB61A754640EA9C00F4
:10C990005B084FEA3202B6EB020E75EB030E22BFC4
:10C9A000B61A754640EADC0055EA060E18D04FEA82
:10C9B000051545EA16754FEA06164FEAC30343EA22
:10C9C00052734FEAC2025FEA1C1CC0D111F4801FEF
:10C9D0000BD141EA00014FF000004FF0004CB6E7E8
:10C9E00011F4801F04BF01430020B4F1FD0C88BF87
:10C9F000BCF5E06F3FF6AFAEB5EB030C04BFB6EB92
:10CA0000020C5FEA500C50F1000041EB045170BD84
:10CA10000EF0004E4EEA113114EB5C04C2BFD4EBB1
:10CA20000C0541EA045170BD41F480114FF0000E35
:10CA3000013C90E645EA060E8DE60CEA135594EAB1
:10CA40000C0F08BF95EA0C0F3FF43BAF94EA0C0FB4
:10CA50000AD150EA01347FF434AF95EA0C0F7FF429
:10CA600025AF104619462CE795EA0C0F06D152EA7D
:10CA700003353FF4FDAE1046194622E750EA410661
:10CA800018BF52EA43067FF4C5AE50EA41047FF472
:10CA90000DAF52EA43057FF4EBAE12E74FEA4102D5
:10CAA000B2F1E04324BFB3F5001CDCF1FE5C0DD90C
:10CAB00001F0004C4FEAC0024CEA5070B2F1004F56
:10CAC00040EB830008BF20F00100704711F0804F59
:10CAD00021D113F13872BCBF01F00040704741F41E
:10CAE00080114FEA5252C2F11802C2F1200C10FA22
:10CAF0000CF320FA02F018BF40F001004FEAC12306
:10CB00004FEAD32303FA0CFC40EA0C0023FA02F3A9
:10CB10004FEA4303CCE77FEA625307D150EA01337F
:10CB20001EBF4FF0FE4040F44000704701F000404F
:10CB300040F0FE4040F40000704700BF53B94AB9CE
:10CB4000002908BF00281CBF4FF0FF314FF0FF3015
:10CB500000F06EB9ADF1080C6DE904CE00F006F8F6
:10CB6000DDF804E0DDE9022304B070472DE9F04769
:10CB7000089D04468C46002B40F083808A4217466D
:10CB800047D9B2FA82F242B1C2F1200024FA00F091
:10CB90009140974040EA010C94404FEA1748230C1B
:10CBA000BCFBF8F61FFA87FE08FB16C143EA0143F7
:10CBB00006FB0EF1994209D9FB1806F1FF3080F00F
:10CBC0001981994240F21681023E3B445B1AA4B29D
:10CBD000B3FBF8F008FB103344EA034400FB0EFEFD
:10CBE000A64509D93C1900F1FF3380F00581A6451F
:10CBF00040F2028102383C4440EA0640A4EB0E04B5
:10CC000000261DB1D4400023C5E900433146BDE8EC
:10CC1000F08702B9FFDEB2FA82F2002A50D1CB1BB4
:10CC20004FEA174E1FFA87F80126B3FBFEFC210CD2
:10CC30000EFB1C3341EA034108FB0CF38B4207D97E
:10CC400079180CF1FF3002D28B4200F2E980844661
:10CC5000C91AA3B2B1FBFEF00EFB101143EA014466
:10CC600008FB00F8A04507D93C1900F1FF3302D2B8
:10CC7000A04500F2D9801846A4EB080440EA0C4015
:10CC8000BFE78B4209D9002D00F0B1800026C5E92D
:10CC9000000130463146BDE8F087B3FA83F6002E36
:10CCA0004AD18B4202D3824200F2B880841A61EBEF
:10CCB000030101208C46002DA8D0C5E9004CA5E752
:10CCC000C2F1200320FA03F6974001FA02F04FEA7E
:10CCD000174ED9403043030CB1FBFEF61FFA87F81C
:10CCE0000EFB161143EA014306FB08F1994204FAD0
:10CCF00002F409D9FB1806F1FF3C80F08D809942BF
:10CD000040F28A80023E3B445B1A81B2B3FBFEF0E4
:10CD10000EFB103341EA034100FB08F38B4207D9B5
:10CD2000791800F1FF3C73D28B4271D90238394433
:10CD3000CB1A40EA064678E7C6F1200C03FA06F45F
:10CD400022FA0CF31C4320FA0CF701FA06F34FEA1F
:10CD5000144E21FA0CF11F433B0CB1FBFEF91FFAF4
:10CD600084F80EFB191143EA014109FB08FA8A45D0
:10CD700002FA06F200FA06F308D9611809F1FF3049
:10CD800048D28A4546D9A9F102092144A1EB0A01FA
:10CD9000BFB2B1FBFEF00EFB101147EA014700FBEA
:10CDA00008F8B84507D9E71900F1FF312ED2B84588
:10CDB0002CD90238274440EA0940A7EB0807A0FB1A
:10CDC00002894F45C64649461AD317D05DB1B3EB29
:10CDD0000E0267EB010707FA0CFCF2404CEA020274
:10CDE000F740C5E9002700263146BDE8F0872E460A
:10CDF00028460BE70646E9E61846FDE64345E5D238
:10CE0000B8EB020E69EB04010138DFE70846D2E710
:10CE100060468DE78146B9E7664675E730464AE7E2
:10CE2000ACF1020C394413E702383C4424E700BF5C
:10CE3000704700BF000000002DE9F04D164690B08D
:10CE400005460F46002209A930460CF03BFC099B21
:10CE50001B78A3B1DFF82081002458F8041B30466A
:10CE60000CF0DBFC60B10134382CF6D12846404A86
:10CE7000334602210BF02BF96FF0220028E0044624
:10CE8000BB680AAA1B69A1B23846984700281FDB75
:10CE90000B98FFF787FB34A3D3E90023FFF716FDB8
:10CEA00006460A980F46FFF77DFB02460B463046C2
:10CEB0003946FFF72BFA372C82468B460BDDCDE93E
:10CEC00000AB2C4A2346002128460BF000F9002035
:10CED00010B0BDE8F08D284B53F8248024F00403F3
:10CEE000032B0CD00B2C0AD0CDE902AB234ACDF892
:10CEF00000802346002128460BF0E9F8E7E70F9869
:10CF0000FFF750FB18A3D3E90023FFF7DFFC064629
:10CF10000E980F46FFF746FB02460B463046394651
:10CF2000FFF7F4F9CDE906010D98FFF73BFB0EA3DF
:10CF3000D3E90023FFF7CAFC06460C980F46FFF71B
:10CF400031FB02460B4630463946FFF7DFF9CDE9A3
:10CF500002ABCDE904010A4ACDF800802346002146
:10CF600028460BF0B4F8B2E70000000080842E41A0
:10CF7000BCC601004DC60100AC0300206CC6010018
:10CF800088C6010038B5002000F0BCF80BF025FE83
:10CF90001A4809F02FF9044640B3C56883684FF476
:10CFA000D0521B680D21984700281ED12B6823F40E
:10CFB00000532B600123E268126883F00105EDB293
:10CFC00012F4005F18BF2B468BB1A368DB684FF4E7
:10CFD00000512046984700F08FF858B140F6CD40F8
:10CFE000002109F0E3FE2B46E5E7E3DA38BDA3684C
:10CFF0001B69ECE74FF40040F2E700BF88B901007D
:10D0000010B50446C0680BF027FD2046024A0021F7
:10D010000BF05DF8002010BD8FB90100F0B50D4F89
:10D0200085B00D4616460024AC4206D10A4A0021BE
:10D030000BF04DF8002005B0F0BD56F824300093F9
:10D040003A4623460021039001340BF040F8039840
:10D05000EAE700BFA6B901005ABC010030B585B0AF
:10D060001546044600F048F800210346194A2046B8
:10D070000BF02DF8184B18681B798DF80430174BFE
:10D080000090186802901B7968688DF80C3069462A
:10D090000CF0C3FB90B9012000F028F800F02CF848
:10D0A0000F4A0346002120460BF011F820460D4A96
:10D0B00000210BF00CF8002005B030BD686802A913
:10D0C0000CF0ABFB0028E7D0074A002120460AF00D
:10D0D000FEFFE3E7B5B90100FEB9010003BA0100A4
:10D0E000EFB901005ABC0100C4B90100014B18702E
:10D0F000704700BFD43C0020014B1878704700BF38
:10D10000D43C002013B5002832D01C4809F072F836
:10D11000044648B3002002F06DFF38BB0190A368BD
:10D120002BB11B6D1BB101AA042120469847019B1E
:10D13000002BF4D011480CF069FB04460F480CF0AA
:10D1400065FB844205D00E480AF0BEFA032002B007
:10D1500010BD0A480CF05AFB0849024608460CF07C
:10D1600068FB0028F3D0EEE70120F0E70220EEE7AD
:10D1700002F040FF002818BF0220E8E7CABA010009
:10D18000D4BA01002DE9F04F87B00F461946109B25
:10D190009DF844B09DF848A01F4C06461425104643
:10D1A00098464FEAE37950EA010319D1142D139CF4
:10D1B00014BF013530232C4408BF8DF81430152CD2
:10D1C0001BD0153C002C1ADC1DF805003946013532
:10D1D000B047152DF8D1002C19DC07B0BDE8F08F51
:10D1E00042464B46FFF7AAFCA25C0DF80520844698
:10D1F0000B4660461946013DD5E70024E4E7BBF144
:10D20000000FE1D039465046B047013CDAE73946D5
:10D210005046B047013CDEE7FFBA01000B6801331E
:10D220000B60014B1B68184700000020014B186081
:10D23000704700BF000000202DE9F04F002687B0A6
:10D2400005468B461C4602F1FF3A4FF0FF38374641
:10D250004FF0000907E0B9F1000F0BD1252800F0CD
:10D260000A815946A8471AF8010F0028F3D107B0E0
:10D27000BDE8F08F7A280AD8622810D8302851D01B
:10D2800044D8252800F0F5802D2800F0FB80594671
:10D290002520A8479AF800005946A847D8E7A0F1EA
:10D2A0006303172BF3D801A252F823F06BD40000CC
:10D2B0006DD300008FD200008FD200008FD200000B
:10D2C0004FD300006DD300008FD200008FD200003A
:10D2D0004FD300008FD200008FD200008FD2000009
:10D2E000E7D300008FD200008FD2000033D40000BB
:10D2F0008FD200006DD300008FD200008FD20000CB
:10D3000015D300008FD200004FD30000392815D963
:10D310005828BCD19AF80030702B6ED154F8042BE9
:10D32000002375E0B8F1000F0BDA002F00F0AC809D
:10D33000A0F13008002F08BF022794E7B8F1000FD2
:10D34000F6DB0A2303FB0808A8F13008F2E7682897
:10D3500003D1682E06D1482685E76C2802D16C2EB1
:10D3600000F09480002E92D106467CE77A2E06D1FA
:10D37000A14659F8042BD317752823D10FE06C2E42
:10D38000F6D04C2E05D1073424F00709F9E8022322
:10D39000F2E77528226804F1040912D10023F81E6F
:10D3A00018BF0120012F0CBF3024202401900A2037
:10D3B000CDE90248009059462846FFF7E3FE4C4667
:10D3C00046E7D317002A73F10001E8DA59462D2009
:10D3D000CDE90423A847DDE90423524263EB43036C
:10D3E00008F1FF38DBE759463020A8475946782036
:10D3F000A8474FF0080801278CE76C2E8ED04C2EE2
:10D400008CD1E31D23F007031C465B6854F8082BFE
:10D41000F81E18BF0120012F0CBF30212021CDE9BB
:10D42000021810210190009128465946FFF7AAFEE4
:10D430000EE754F8043B99464A4619F8010B78B9AF
:10D44000032F25D1A2EB0309A8EB0909B9F1000FBD
:10D450007FF7FEAE59462020A84709F1FF39F5E7CE
:10D4600059460493A847049BE6E754F8040B594631
:10D4700013E7594611E74E464F464FF0FF384FF03D
:10D480000109F0E60327EEE60127ECE64C26EAE682
:10D490008146E8E607B50B460021024601910348A4
:10D4A00001A9FFF7C9FE03B05DF804FB1DD200001F
:10D4B00030B585B0CDE90101044600250548039546
:10D4C00001A9FFF7B9FEDDE902309842B8BF255443
:10D4D00005B030BDA37601002DE9F74FB0F81890E4
:10D4E00019F00808044693460ED001290CBF49F0F4
:10D4F000100949F02009A0F818908BF31188BFF3A8
:10D500006F8F03B0BDE8F08FDFF890A109F0070935
:10D51000022907D120460AF0F1F80028EDD00128B1
:10D52000238B4BD16769218B002F15DA256821F0F9
:10D530000701C4E9008841F0010121830026218B05
:10D5400001F007024A4502D0A368002B57D10DB95C
:10D55000002E6FD0002353E001F007035A1F012A69
:10D560001DD821F00701062B256889B2C4E900887F
:10D570000AD13DB1638B2A46126801339BB2002A5F
:10D58000FAD1638341F00201218320460AF0B6F804
:10D590000028D3D0238B43F020032383CEE7042B32
:10D5A0000AD121F0070189B2218320460AF0A6F8AA
:10D5B00010B141F0200121830025BFE7032809D1E4
:10D5C000226923F00703166843F00603238300252E
:10D5D0002F46B4E7042806D1226923F007035668D2
:10D5E00043F00403F2E7052806D1226923F007037C
:10D5F000966843F00503E9E700252E46E8E7012396
:10D6000041F0080121838BF31188BFF36F8F03BBB7
:10D61000002D31D116B151462046B0474FF02003BE
:10D62000EFF3118B83F31188BFF36F8F238B23F0FC
:10D6300008032383238BDA0627D523F010032383E3
:10D640000121B4F8189009F0070900297FF460AFB0
:10D6500053E7A1680029DBD0D1F80090D1F804B0DD
:10D6600001923B462046D847019AB9F1000FCFD02E
:10D670004946D9F80090F1E729463B4620460192F9
:10D680002D680AF057F8019AC2E713F020011EBF77
:10D6900023F0200323830221D3E700BF6177010039
:10D6A0002DE9F04FA1B01E46002303908946029356
:10D6B000134613F8010B069358B1252800F081801A
:10D6C0004946039B9847013040F04A844FF0FF33AE
:10D6D0000293029821B0BDE8F08F2B2D65D05CD865
:10D6E000202D65D0232D66D0002DF2D0CDF81880E6
:10D6F000DDF81880A44818F8015B29460CF078F88A
:10D700000028EAD12A2D63D156F8043B0793002B59
:10D71000BFBF5B42079301230D93069B98F800500F
:10D7200003F102082E2D78D198F800302A2B71D100
:10D7300056F8044B08F1010818F8015B9348294694
:10D740002F460CF055F800286AD04346682F13F88E
:10D75000015B069307D1682D05D108F1020398F803
:10D76000015006934827782D08D8572D5CD8252DD1
:10D7700000F0F28300F2A280002DAAD0039B49465C
:10D78000252098470130A1D0039B49462846984759
:10D7900001309BD0029B0233E4E32D2D0ED0302DBF
:10D7A000089B08BF01230893A0E7012309939DE785
:10D7B00001230C939AE74FF0010A97E701230D9399
:10D7C00094E7002308930C9309930D939A468FE7EF
:10D7D000A5F13003092B0790A4D80A22DDF81880A0
:10D7E00018F8015BA5F13003092B9BD8079B02FBBE
:10D7F0000355A5F13003CDE90683EFE701FB0434BF
:10D80000303C9046424612F8013BA3F13000092813
:10D81000F4D991E700240A21F4E74FF0FF348DE7B3
:10D82000CDF8188007469EE7A5F15803202BA5D810
:10D8300001A252F823F000BFBDDE00007DD700003A
:10D840007DD700007DD700007DD700007DD7000088
:10D850007DD700007DD700007DD700007DD7000078
:10D860007DD7000091D9000067DA0000C9D8000018
:10D87000C9D80000C9D800007DD7000067DA0000D1
:10D880007DD700007DD700007DD700007DD7000048
:10D8900049DE0000BDDE000073DE00007DD7000021
:10D8A0007DD7000095DE00007DD70000BDDE0000C2
:10D8B0007DD700007DD70000BDDE0000A5F1450347
:10D8C000DBB2022B3FF65AAF073626F007031946A4
:10D8D000F1E80223D80240EA5250D60220F000407C
:10D8E00004960590DDE90467002A0191C3F30A510B
:10D8F00073F10003CDE9146780F2E5802D238DF8E4
:10D9000064300DF1650740F2FF73994240F0F680F4
:10D91000DDE904120A43A5F1410507F1030340F0D4
:10D92000E280192D00F2D98049223A704E227A7095
:10D930004622002419AEBA70FC709B1BA246A34677
:10D94000099A002A40F07D820C9A002A40F07982E0
:10D950009DF86480A8F12D02D2F1000848EB02087E
:10D960000BEB0A0633441E1920AB434413F81C3C4E
:10D97000303B092B00F2FE82089B002B00F0FD8259
:10D98000079B19AF9B1B14E010BB010016BB0100E5
:10D9900032464FF0000852F8043B01928DF8643093
:10D9A0000126444619AF04EB080300249B1BA24642
:10D9B000A34623EAE3739A190892079A9919551A0C
:10D9C0000D9A12B9002D00F3ED8207EB0802BA425E
:10D9D00040F0EA82013B80F0F582A6EB0806BBF13D
:10D9E000000F10D0387807EB0608A0F13003092BA0
:10D9F000A8EB070640F2F182D846B8F1010880F0A2
:10DA0000F582A6EB0B06BAF1000F16D007EB06085D
:10DA100017F801BB039B49465846984701303FF42D
:10DA200055AEBBF12E0FA8EB0706F1D1D046B8F1E9
:10DA3000000F00F3E482A6EB0A0694B1387807EBF6
:10DA40000608A0F13003092BA8EB070640F2E2829A
:10DA50002E2800F0DF82A046B8F1000F00F3E38229
:10DA6000361B3E44F2E23568331D002D01931CDA6B
:10DA70002D238DF8643069420DF165070A2238467E
:10DA80000AF09FF9099B384419AE861B002B40F021
:10DA90006C820C9B002B40F068824FEAD578002CFA
:10DAA00080DA0024A246A34666E7099B23B12B2314
:10DAB0008DF864302946DFE70C9B0BB12023F7E794
:10DAC000294619AFDAE7099B0BB12B2317E70C9B0B
:10DAD0000BB1202313E719AF15E769223A706E22C4
:10DAE0007A70662225E7192D99BF4E2241216E22B8
:10DAF000612194BF3A703A7079701AE7049B0598D7
:10DB00000B430E93CB1703430F93DDE90E23462DF2
:10DB100008BF6625134300F00781002900F09F80AD
:10DB2000159B43F00043A1F2FE381593002618F12F
:10DB3000020FC0F2A880B8F1000F00F3D48014A83F
:10DB400008F101080AF061F9B8F1040FF7D1002CCF
:10DB500005F0DF03B8BF0624472B40F0EE80F11C30
:10DB600002DBB44280F2E380023DEDB2002C00F013
:10DB7000EA80013CBAF1000F40F0E580002CD4BFF0
:10DB80004FF000084FF00108662D40F0DE8014EBE6
:10DB9000060B4FF0660500F1DB80BBF1100FA8BF4C
:10DBA0004FF0100B1023139300224FF00063CDE9C8
:10DBB0001623BBF1010B80F0CE80149B169A1799A7
:10DBC0009B18159A41EB0202CDE9143202F0704322
:10DBD000109300231193DDE91023134306D014A8FA
:10DBE0000AF025F914A80AF010F90136662D40F064
:10DBF000CF80002E40F3B680139B002B07DD13A9C6
:10DC000014A80AF03DF9013E07F8010BF4D1B34620
:10DC10003B460026BAF1000F01D1002C15DD2E2263
:10DC200003F8012B002E00F0AE80002C40F3AD80F5
:10DC3000C6F1000AA245A8BFA246A4EB0A04002C24
:10DC400003DD139A002A00F39480B8F1000F40F02E
:10DC5000B480002219AE1A709B1B71E60139049B37
:10DC6000DB180493059B5B410593DDE90423002A3F
:10DC700073F10003F2DADDE90423CDE914234FE761
:10DC800014A80AF0C2F8DDE9142C0023CDF828C04E
:10DC90000B93DDE90A01002908BFB0F1333F08F119
:10DCA0000108EDD20520A2FB002300FB0C33CDE9D7
:10DCB0001423013E4FF0000E00214FF0000C6FF0D6
:10DCC000004B8C4508BF9B4506D2BEF1000F3FF4C8
:10DCD0002EAFCDE914232AE792185B4108F1FF38F3
:10DCE0004FF0010EE8E714A80AF0A1F8DDE91410DE
:10DCF00008F1FF3801364FF0000E00234FF0000C02
:10DD00006FF0004B9C4508BF834506D2BEF1000F63
:10DD10003FF411AFCDE914100DE74918404108F167
:10DD2000FF384FF0010EE8E70026B04607E7A41BD6
:10DD3000BAF1000F04D1662520E74FF0000823E771
:10DD40004FF0000823E74FF0000804F1010B24E72F
:10DD50004FF0000B26E716A80AF069F816A80AF09B
:10DD600054F826E73B46302203F8012B4FF0000B16
:10DD700050E713A914A80A930AF082F80A9B013C01
:10DD800003F8010B5BE7B24659E74FF0000A5CE786
:10DD900013A914A80AF074F83028387018BF06F1D7
:10DDA000FF36BAF1000F37D1002C35DC7B1CB8F1FF
:10DDB000000F43D04FF0000BDA46194613F8012D3F
:10DDC000302AFAD02E2A18BF0B46002405F0DF02B5
:10DDD000452A7FF43EAF002E1946BABF76422D2267
:10DDE0002B22632E01F8025B5A7008DD642096FB3B
:10DDF000F0F202F13005D91C9D7000FB12660A207A
:10DE00000B4696FBF0F200FB126602F1300530364D
:10DE100003F8025B4E701CE72E22BB1C7A70002CAC
:10DE2000C5DD139A002AC2DD13A914A80A930AF0CB
:10DE300027F80A9B013C03F8010BF0E7C346C246F2
:10DE4000C4E74FF001088BE53246682F52F8043BD7
:10DE5000019206D06C2F09D0482F07D1029A1A7070
:10DE600001E0029A1A80019E069A21E4029A1A6041
:10DE7000F9E747F63003ADF864303346102253F823
:10DE8000041B01930DF1660009F09BFF4FF002089F
:10DE9000861C04E63346002C53F8047B0193B8BF7C
:10DEA0006FF000440026B44203D126460024A04669
:10DEB00079E5BB5D002B5BD00136F4E7331D6F2D98
:10DEC0003168019319D1BAF1000F08D030238DF8D1
:10DED000643079B98DF8651088460126DFE519AD03
:10DEE0002846082209F06DFF19AEAD1B2E184FF021
:10DEF0000008D4E50DF16505F2E7752D05D10A227C
:10DF000019A809F05EFF0646F1E7BAF1000F11D03B
:10DF100047F63003ADF864300DF16607102238463D
:10DF200009F04FFF582D07D019ABFF1A3E184FEAE2
:10DF30004A08B4E519AFF1E719AA12F8013BA3F1B9
:10DF40006101192903D8203B02F8013CF5E712F8DA
:10DF5000013C002BF1D1E7E749462846FFF7B1BB6A
:10DF6000029B0133CDE901637DE74FF0010896E59F
:10DF70001C469CE719AF00231DE5089B19AF1AE565
:10DF800009934946039B0792202098470130079A3E
:10DF9000099B3FF49BAB013AF2D2029929440291CA
:10DFA000154612E52A46F6E7099317F8010B039B7D
:10DFB0000792494698470130079A099B7FF407ADBD
:10DFC000FFF784BB07934946039B302098470130F5
:10DFD000079B7FF4FFACFFF779BB039B494698474B
:10DFE00001303FF473AB17F8010FFEE4039B494681
:10DFF0003020984701307FF400ADFFF767BB039BEB
:10E00000494630209847013008F1FF387FF40FADC2
:10E01000FFF75CBB039B4946984701303FF456AB82
:10E0200017F8010F0DE5039B494630209847013052
:10E0300008F1FF387FF410ADFFF748BB17F8010B6C
:10E04000039B4946984701303FF440ABF31B002B3C
:10E05000F4DC029B089A002D134402937FF703AF70
:10E060002C4606E0039B49462020984701303FF4A8
:10E070002DAB013CF6D2029B2B440293F3E600BF8A
:10E0800013B504460CF0E6FCC0F307230193C0F37C
:10E0900007430093044A030E002120460AF017F8B4
:10E0A000002002B010BD00BF1ABB01002DE9784866
:10E0B00004460CF017FD4FF47A76A0FB06BC06FB75
:10E0C00001CC00254FEADB3242EA4C432046034AAA
:10E0D000294609F0FCFF2846BDE8788833BB0100DB
:10E0E00010B5044603F0A0FF084A0346002120466D
:10E0F00009F0EDFF064A2046002109F0E8FF054837
:10E10000214608F013FF002010BD00BF42BB0100F4
:10E1100061BB010075E1000030B5014687B00446DF
:10E12000114808F003FF114A002312F8011BAA2925
:10E1300003D10133B3F5006FF7D1C3F50061642259
:10E140004A43D20A002505924FF40062CDE903123A
:10E15000CDE901232046054B054A0095294609F0E3
:10E16000B6FF284607B030BD51E20000A85A002093
:10E170006BBB0100F0B587B0D0F8A07004460D4627
:10E180000CF058FC064608F031FE224B2249234A87
:10E19000002E08BF1E46224BCDE90046844208BF30
:10E1A0000B462846002109F092FFD4E90A23CDE965
:10E1B000022394F90E301B4A00930021237B28464A
:10E1C00009F085FF204608F0F9FE174A03460021B2
:10E1D000284609F07CFF05A920460CF02DFC0146DD
:10E1E00038B10346114A0021284609F070FF07B0F4
:10E1F000F0BD059A6423B81ACDE9002043430C4AC8
:10E20000B3FBF7F32846CDE902733B4609F05FFF05
:10E21000EDE700BFB3BB0100B1BB0100B6BB01001D
:10E22000EABE0100C2BB0100ECBB0100F8BB01006B
:10E2300025BC010010B5044603F010FF034A034655
:10E240000021204609F043FF002010BD5CBC010006
:10E25000F0B5D0F8A0608BB004460D4609A90CF0CB
:10E26000EBFB38B10346114A0021284609F02FFF85
:10E270000BB0F0BD079020460CF0DCFB099ADFF8EC
:10E2800034C00799B71A002808BF60466423CDE957
:10E290000227CDE900067B43054AB3FBF6F3284687
:10E2A000CDE90463234609F012FFE1E7F8BB010062
:10E2B00072BC0100B3BB01002DE9F0410F4A104CC4
:10E2C000104E114FDFF844800021054609F0FFFE93
:10E2D000B44202D10020BDE8F081204607F074FF6F
:10E2E00050B13A4600212846236809F0F0FE424624
:10E2F0000021284609F0EBFE1034E9E745BD010096
:10E3000058050020280600204FBD01005ABC01001E
:10E310002DE9F8430E4BDFF83C9053F821400131D2
:10E32000064653F821800027A04502D83846BDE8AC
:10E33000F883204607F048FF054630B123684A4677
:10E340000021304609F0C3FE2F461034ECE700BF31
:10E35000CCB1010054BD010010B51F4A0446002194
:10E3600009F0B5FE02212046FFF7D2FF014618B999
:10E370001A4A204609F0ABFE194A0021204609F04E
:10E38000A6FE03212046FFF7C3FF014618B9134A32
:10E39000204609F09CFE134A0021204609F097FE12
:10E3A00000212046FFF7B4FF014618B90B4A20466A
:10E3B00009F08DFE0C4A0021204609F088FE01215B
:10E3C0002046FFF7A5FF014618B9044A204609F088
:10E3D0007EFE002010BD00BF5ABD010068BD0100D7
:10E3E00070BD01007EBD01008DBD010038B58368A0
:10E3F000002583F838509D865D868368D3F85831B0
:10E40000DB0304460BD5084B084A04210AF064F9E3
:10E41000A368D3F8582165F31042C3F85821204669
:10E42000BDE8384000F0F4BFEBBD010051BD010074
:10E4300037B58368D3F85821520604460D4608D5EF
:10E44000D3F85821C0686FF38612C3F858210AF038
:10E45000D5FAE368DB6863B99DB3A068383009F08A
:10E46000D6FDA36878B303F1380103F1B8000BF0CF
:10E47000A2F9A268E0680DF10603383229460AF0D5
:10E48000C0FA58B9A06800F1B80138300BF093F920
:10E49000A068383009F0BBFDADF8060020460AF050
:10E4A0009DF80A4A0A49606909F0B7FD204600F064
:10E4B000F3FEA368BDF806209A865A86204600F02F
:10E4C000ADFE03B030BD83F8B800D2E7F1BE010065
:10E4D00051BD01002DE9F04F83689DB0DE6904460F
:10E4E00000223833049203930AF07EF820460AF0A3
:10E4F00001F818B99E49606909F08FFDA0681422DF
:10E50000002108300BF0F6F9204609F06CFFA168F5
:10E51000E0684A8E38310AF0ABFA002E00F0DD8058
:10E5200033680F93039B1093F368CBB94FF0FF3818
:10E530000025D6F804E0BEF1000F08D0B446BCE8D0
:10E540000F000AAF0FC7DCF800303B60F246013520
:10E550000DF140094FF0000BCDF808B05F467EE0AA
:10E5600037460FCFA56808350FC53B682B60B368E9
:10E57000002BDBD1737CFE2BD8D196F810800125BF
:10E5800008F1FF38D5E702234946039A04A809F0A9
:10E5900029FE59F8043F0393049B2BB96FF007053C
:10E5A00028461DB0BDE8F08F012B07D130B1714A6C
:10E5B0000346022120460AF08FF8EFE7ADB16E491D
:10E5C00059F8040C0BF029F940B9BAF1000F63D1E6
:10E5D0006A4A022120460AF07FF8DFE7684959F8C5
:10E5E000040C0BF01AF90028EFD0029B33B959F84C
:10E5F000041C05AA304609F0BCFE074608F1FF38A6
:10E60000002F59D0FB68A3B1BC46BCE80F00A66838
:10E6100008360FC6DCF800303360BB68002B49D1E8
:10E620007B7CFE2B46D197F81080AB4608F1FF3873
:10E630000135D7F804C0BCF1000F08D0BE46BEE8D3
:10E640000F000AAE0FC6DEF800303360E2463E46E9
:10E65000049BB8F1000F01D1022B00D101350499C0
:10E66000012904D00B2D7ED8B8F1000F8BD11CAB43
:10E6700003EB8503A068002243F8342C4369002B88
:10E6800032D1BAF1000F89D0C36853450DD0CDF80F
:10E690002CA000F1080503E0A568CDF82CA00835F2
:10E6A0000AAE0FCE0FC533682B60204609F0C2FCBE
:10E6B000012575E7AB46BCE765B9A368DB690BB11B
:10E6C000DB683BB92F4B00932F4A0F9B022120465A
:10E6D0000AF002F801230293BAE7B2464FF0FF387E
:10E6E00035460DF13C0935E7037EA5EB0B05B3B1CB
:10E6F000427E4FF6FF71FF2A08BF0A469D4202D3B1
:10E7000013449D420BD98368204A0221204609F018
:10E71000E3FF204609F08EFC6FF0150540E7D0F8C6
:10E72000583143F08003C0F8583100F5F67009F015
:10E730006CFCA3680FAA29465B6902EB8B0220469A
:10E7400098470546A0684FF0FF324FF0FF3300F5C1
:10E75000F67009F082FCA368D3F858216FF3C71252
:10E76000C3F858211CE7022981D1094B094A21E746
:10E770005ABC01002FBE010043BE01004DBE010086
:10E7800046BE01006BBE010019C10100A3BE01001D
:10E790007FBE010056BD01002DE9F041044688B05E
:10E7A0000F464FF40372002180681E460BF0A2F85A
:10E7B000A3682268E0681A600AF0C7F9A06800F54B
:10E7C000F67007F067FE4FF4CE784FF4AE75A06890
:10E7D00028440CF0CEFAA0680022431901214044DD
:10E7E00010350CF0A9FAB5F5CE7F08F11408EED17A
:10E7F000A369A26800251D60D2F85831106843F063
:10E800001003C2F85831D2F8583143F00403C2F86B
:10E810005831D2F8583143F02003C2F858311B4B1D
:10E82000936209F0F4FBA36883F82C00A368D3F883
:10E83000582165F34102C3F858216068144A0368FF
:10E8400039461D682346A8470546D0B9A36801226A
:10E850001A71D4E9090100220023CDE906230E2311
:10E8600003930E9B0495CDE901630094094B4FF48B
:10E87000806208F03DFCA368216AC3F8080208F032
:10E880008DFB284608B0BDE8F08100BF180050009D
:10E8900047800100B1EF000010B50446806803799D
:10E8A000012B18D14FF0FF324FF0FF3300F5F67017
:10E8B00009F0D3FB0949606909F0AFFBA3680222A4
:10E8C0001A712046FFF792FDA06800F5F67009F076
:10E8D0009CFB002010BD6FF02200FBE759BC01003B
:10E8E0002DE9F04F2DED028B8368BFF35B8FA9B04C
:10E8F000044603F5AC7353E8002F42F0080243E8E6
:10E9000000210029F7D1BFF35B8FA3681B79022B8D
:10E9100040F02983002309936068036801221D6980
:10E920000DF1230109ABA847099B002B00F01B83C5
:10E930009DF923209DF82330002AEDDBA068417962
:10E94000012900F08C82022900F09F82002940F00A
:10E9500008830D2BD0F858211AD00A2B18D061F358
:10E960000F22C0F85821092B55D03AD8002BD3D00C
:10E97000082B00F0D981A3F120025E2AD0F858219B
:10E9800000F2E18142F04002C0F858211946F7E058
:10E9900012F47F4F05D0D0F85821C2F307229342DA
:10E9A000E1D1D0F8582163F30F22C0F85821428EEC
:10E9B0009AB9D0F8583162F38613C0F85831E0683C
:10E9C0000AF01CF8B149606909F027FBA36802222C
:10E9D0001A712046FFF70AFD9EE72046FFF77AFDF1
:10E9E000F4E71B2B14D07F2BC5D1D0F858315F072B
:10E9F00092D5D0F8583143F04003C0F85831D0F8E0
:10EA000058319E0600F19B81204609F0A7FE83E75E
:10EA10000123437180E7D0F8583159077FF57CAF67
:10EA2000D0F8583143F04003C0F85831438E7F2B63
:10EA30003FF472AF828E00F13801B8300AF02FFF38
:10EA4000A268938E1344002583F8B8501BA90C23A9
:10EA5000B8320BA809F0C6FB0B990C293FF65CAF46
:10EA600028ABA06803EB810343F8345C838E034436
:10EA700093F83730202B00F08A82093B042B40F2B8
:10EA80008682012956D80023C6690A930A9B28AAC0
:10EA900002EB8303002553F834AC504609F0B7FA73
:10EAA000A846814603952F4616AA3946304600F0FF
:10EAB00067FB834600284BD1012D6AD10A9B28AA07
:10EAC00002EB830353F8340C09F0A1FAA26805465F
:10EAD00008324146304600F053FB0646006809F014
:10EAE00096FA854206D03168421B92B229442046EC
:10EAF00009F032FEA3689A8E1A4492F83820202A30
:10EB000042D0093A042A3FD9D3F85821D20736D542
:10EB1000D3F858216FF30002C3F858212021204672
:10EB200000F044FCA268D2F8583143F00103C2F867
:10EB30005831F1E60139002301930CAB0093C06911
:10EB40000AAB1BAA09F02CFC064600289ED1E3E67E
:10EB5000DBF800004A4651460AF06BFE68B9DBF864
:10EB600000000AF053FE039B834238BF03469BB26A
:10EB7000002D08BFB84603930135013794E72021E3
:10EB8000204600F013FCC7E60121204609F0C8FC2E
:10EB9000C2E67FF6C1AE0A9B28AA02EB8303C146F8
:10EBA00053F834AC504609F032FAA3680495A3F840
:10EBB00030B008EE900ADFF8D8B0A26849460832B3
:10EBC000304600F0DDFA09F101090746BAF1000FFD
:10EBD00051D13B68002B5DD1A2681386049B013B99
:10EBE0000493EAD12949606909F017FA204600F038
:10EBF0000FFC0A9B28AA02EB830308F1010953F8D2
:10EC0000340C09F004FA414611AA0746304600F0D8
:10EC1000B7FA8046A068D8F800107F22B8300AF012
:10EC2000D4FDD8F800A04FF6FF7816AA4946304622
:10EC300009F1010B00F0A4FA002868D0A36800686D
:10EC4000B833002213F801CB815C614505D121B1B5
:10EC500001324FF6FF718A42F4D10FB1BA4208DB9C
:10EC6000904505F1FF35A8BF9046012D1FFA88F8A1
:10EC70004DD0D946D9E700680028AAD018EE902ACE
:10EC800051460AF0D6FD0028A3D096E75ABC0100F1
:10EC9000E9BE01005846059309F0B9F9039BA16844
:10ECA000184482B258464F8D079209F0B0F9059B7F
:10ECB0000690184609F0ABF9079A0699101A83B224
:10ECC000A068B0F830C07F1A97FBF2F292B2BCFB9A
:10ECD000F2F102FB11C20CF1010E92B208EE103AF1
:10ECE000A0F830E0059B62B90093AB4A5B46072170
:10ECF000204609F0F1FC18EE101A204600F07EFACA
:10ED00006CE7A64A0721204609F0E6FCF3E7B8F1D4
:10ED1000000F3FF401AEA8EB070292B20AEB070125
:10ED2000204609F019FDF7E5D0F858315B077FF56B
:10ED3000F3ADD0F8583143F04003C0F858312046C5
:10ED400009F027FDE8E555077FF5E6AD013B162BF9
:10ED50003FF6E2AD01A252F823F000BF29EF000018
:10ED6000B9ED0000C1ED000009EA00001DEF000050
:10ED7000E7ED000019E9000019E9000019E90000B9
:10ED800019E90000EFED0000F7ED000019E90000BF
:10ED900013EE000019E900001DEE000019E9000063
:10EDA00019E9000019E9000019E9000021EE00004E
:10EDB00019E900004DEE0000204609F01CFCABE50F
:10EDC000204609F011FC204609F094FB18B974495B
:10EDD000606909F022F9A368D3F8582142F0400293
:10EDE000C3F85821F3E5204609F00DFC94E52046D0
:10EDF00009F012FC90E560696A4A684909F00DF96A
:10EE00006069694A654909F008F9204600F000FB8D
:10EE100082E500212046FFF70BFB7DE50121F9E7A4
:10EE2000204609F0DBFBA3685C49002283F8382008
:10EE30009A865A86A268D2F8583143F04003C2F845
:10EE400058316069594A09F0E8F865E5204600F054
:10EE50002BFAA268D2F8583143F0400367E65B2BE7
:10EE600001D10223D5E5D0F85821500709D5622BEE
:10EE700005D14FF0FF31204609F076FB01E0662B0B
:10EE8000F9D0A36800225A7146E500224271A268B7
:10EE9000D2F8581149077FF53FAD313B1B2B3FF6A8
:10EEA0003BAD01A151F823F025EF000031EF000048
:10EEB00051EF000019EF000019E9000019E9000006
:10EEC00019E9000019E9000019E9000019E900003A
:10EED00019E9000019E9000019E9000019E900002A
:10EEE00019E9000019E900001DEE000013EE000012
:10EEF000E7ED0000B9ED000019E900001DEF00008A
:10EF000019E9000029EF000019E9000019E90000E3
:10EF100019E9000035EF000003235371204609F082
:10EF200063FBF9E403235371204609F057FBF3E434
:10EF300003235371A268D2F85831D2F8581103F064
:10EF4000010383F0010363F30001C2F85811E3E405
:10EF500003235371A368D3F858315B077FF5DCAC0A
:10EF600052E5002355E5A368BFF35B8F03F5AC734F
:10EF700053E8002F22F0080243E800210029F7D1CE
:10EF8000BFF35B8F29B0BDEC028BBDE8F08F002989
:10EF90003FF479ADCFE500BFBEBE010051BD010019
:10EFA0005ABC0100F5BE0100F9BE0100F1BE01002E
:10EFB00037B504464068036800219B68984718BB32
:10EFC0002046FFF769FCF8B9A06800F5CE704FF055
:10EFD000FF324FF0FF33032108F096FA0546A06890
:10EFE0004FF0FF324FF0FF3300F5F67075B109F0C6
:10EFF00034F82046234A2B46022109F06DFBA06815
:10F0000000F5F67009F001F803B030BD09F025F8FD
:10F01000606803685B6903B19847A56801AA6946FF
:10F0200005F5BE700BF0AAFE009BB3B10023C5F836
:10F030008431A368D3F858311B070AD46068036889
:10F040005B689847054620B9E06809F005FDA368AC
:10F050001D7107F0CBFE03F0CFFAA56801AA69463F
:10F0600005F5AE700BF08AFE009B2BB10023C5F8AE
:10F0700064312046FFF734FCA06800F5F67008F014
:10F08000C4FFA1E7C4BE01002DE9F04716461F46A4
:10F090002A4ADFF8B480DFF8B490DFF8B4A00B465A
:10F0A0000021044609F013F80025AF4231D9735D01
:10F0B0004A460021204609F00AF80135102D20D1DA
:10F0C0001F4ADFF88C80DFF88C900021204608F082
:10F0D000FEFF0025AF422AD9735DA3F120025F2A0B
:10F0E00028BF2E234A460021204608F0F0FF0135B4
:10F0F000102D14D12046134ABDE8F047002108F036
:10F10000E6BF15F00701D0D15246204608F0DFFFD8
:10F11000CBE742460021204608F0D9FFCDE715F0A5
:10F120000701D7D14246204608F0D1FFD2E7424638
:10F130000021204608F0CBFFD9E700BFDBBE01006D
:10F14000ECBE0100EEBE0100E8BE0100E2BE01001F
:10F15000EABE010002BF010010B5044613460A468C
:10F1600001460648FEF79CFA23691B7923B1204625
:10F17000BDE8104008F0CEBF10BD00BF2D810100DA
:10F1800010B50B46144650B90E490F4A521AB3EB4C
:10F19000D20F0FD201EBC3014C68204610BD81682D
:10F1A00041B14A68097839B1184621469047236829
:10F1B000002BF2D10024F0E714204343D418D35895
:10F1C000F6E700BF54B00100CCB00100014A02498B
:10F1D00009F06DB905BF010051BD010059B1002909
:10F1E00081EAE172A2EBE17240690349CCBF41239D
:10F1F000422309F05CB97047FEBE010059B10029F5
:10F2000081EAE172A2EBE17240690349CCBF43237A
:10F21000442309F04CB97047FEBE010010B5044606
:10F2200009F068F928B160690549BDE8104009F0A6
:10F230003EB904F1080009F047F90028F3D110BDE8
:10F240005ABC01002DE9F0410646054656F8084F24
:10F2500004F12000628EA18E08F0AEFF3046B4F8B3
:10F260002480E78C09F030F918B10A49686909F07F
:10F270001EF9B84507D1218C638C2846C91ABDE810
:10F28000F041FFF7BBBFE18CA38C2846C91AFFF7FA
:10F29000A5FFF0E75ABC0100826802494069383294
:10F2A00009F005B951BD01008368F7B55A8E0546CE
:10F2B000002A48D0988E002845D03730184403F1F2
:10F2C00038060346C41AB342A4B219460DD311F846
:10F2D0000179202F35D01946013B0878202804D029
:10F2E00001349E42A4B21946F5D94B1C601C121B76
:10F2F0000144184601930AF0BBFAA9684A8E121B12
:10F3000092B24A860A440026614282F83860284652
:10F3100009B209F005F968690C4A0D4909F0C7F806
:10F320003146019B0A4A284609F0D6F96869FFF779
:10F330004DFF084A0649686903B0BDE8F04009F08E
:10F34000B6B80B46BEE703B0F0BD00BF09BF010071
:10F3500051BD01000CBF010070B504460D461646B4
:10F3600012B14069FFF732FFA268938E383313441D
:10F3700020460C4A002109F0AFF9204650F8083F1A
:10F380005A8E9A8609F0A0F828B106B11DB1064937
:10F39000606909F08CF86942204609B2BDE8704006
:10F3A00009F0BEB851BD01005ABC010013B5836815
:10F3B0008DF80710D3F85821D20704461DD5998E31
:10F3C0005A8E8A4219D0481C98860B449DF8072013
:10F3D00083F83820A368D3F858315B070BD56069F0
:10F3E000094909F064F8204609F084F818B1074982
:10F3F000606909F05CF802B010BD01220DF107014F
:10F40000204609F077F9F6E702BF01005ABC010077
:10F4100083680A4A1B6810B50446032109F05CF9A9
:10F42000A368D3F858315B0707D52046FFF734FFB0
:10F430002046BDE81040FFF705BF10BD51BD0100DB
:10F44000406810B50C4601688B60A368C1E90042B2
:10F450002BB19B6C1BB10246044920469847A36818
:10F460009B6A0BB120469847002010BD65880100BB
:10F4700013B5094806F0BEFE014648B10024012339
:10F48000064800941A46FFF787F9204602B010BDDF
:10F490006FF01200FAE700BFCABA010028B00100FD
:10F4A0002DE9F047044690460E4600296ED000250F
:10F4B000735D202B25D0093B042B22D9DFF8D09097
:10F4C00030460AF0A3F9A368598D80B2401BA1EB26
:10F4D0000803984206EB050A15D95046002710F894
:10F4E000012B202A06D0A2F1090CBCF1040F02D88E
:10F4F0000A2A31D03B4608EB070291422BD901374B
:10F50000EDE70135D4E753460027B84217D013F88A
:10F51000012B0A2A05EB07091BD1606908F0FAFDE7
:10F520003A465146204609F09BF81949606909F0AE
:10F53000FFF94146204609F10105FFF75FFE6069CA
:10F54000711909F0F5F960691149BDE8F04709F052
:10F55000EFB90137D9E71F46606908F0DBFD3A468D
:10F560005146204609F07CF83D44735D202B0BD0BA
:10F57000093B042B08D96069494609F0D9F941468D
:10F580002046FFF73BFE9BE70135EEE7BDE8F0873D
:10F590005ABC01002DE9F04F866800218DB0044669
:10F5A00008360D4607AA304601F10108FFF7E8FDCD
:10F5B0000746B0B995B10146214ADFF88880DFF8E7
:10F5C00088A0DFF888B0204609F086F839464B1C41
:10F5D00007AA30460493FFF7D3FD60B90DB0BDE82C
:10F5E000F08F386810B10AF011F980B2854238BF47
:10F5F00005464146D6E70368D0F8049011480593C4
:10F600000AF004F9059B07467BB1CDE90138009566
:10F61000434652460021204609F05EF8B9F1000F3A
:10F6200005D16069594609F083F90499CFE76A1C4E
:10F6300002EB470292B249462046FFF731FFF4E75A
:10F6400023BF01003FBF010031BF01005ABC0100D0
:10F65000836873B505469868C8B10AF0D7F884B2D4
:10F660000C4E30460AF0D2F8AB6800969B680A4A06
:10F6700004440021284609F02FF8AB68A4B2D968E9
:10F680002246284602B0BDE87040FFF709BF044695
:10F69000E6E700BF3BBF0100BFBE010010B5044656
:10F6A0000549064A406909F08AF96069044A024935
:10F6B00009F085F9002010BD51BD010056C50100BB
:10F6C0005AC5010010B50446044A0549406909F0CD
:10F6D00076F9A368034A9A62002010BD5FC5010055
:10F6E00051BD01001800500008B58369034A1B682A
:10F6F000002108F0ECFC002008BD00BF42BF010063
:10F7000010B5064A0446002108F0E1FC2046044AF0
:10F71000002108F0DCFC002010BD00BF51BF01003B
:10F7200040C00100F0B50F4F85B004460025A26827
:10F73000E0680DF10E03B832012109F062F9BDF85D
:10F740000E00A36850B1B83300936E1C2B463A46A6
:10F750000021204608F0BBFC3546E8E783F8B800F6
:10F7600005B0F0BD08C10100022907B50CD15368EE
:10F7700001930D4B009313680C4A08F0A8FC6FF03E
:10F78000150003B05DF804FB8368094AD3F85831CB
:10F7900013F0040F4FF00001064B18BF1346064A42
:10F7A00008F095FC0020ECE71FC1010016C1010024
:10F7B00032BD010012C1010034C10100F0B50129C0
:10F7C00085B005460DD053680193514B00931368E3
:10F7D000504A022108F07BFC6FF01504204605B06A
:10F7E000F0BD4D4A4D49406909F0E9F86FF0F90163
:10F7F0002846FFF7F3FCFA212846FFF7FFFCA8682C
:10F80000002480222146B8308DF80B400AF072F8AF
:10F810004349686909F0D3F8686908F07BFC4FF444
:10F820007A766868036801221F690DF10B0103AB4A
:10F83000B847039B53B9013E4FF47A70B6B20BF050
:10F84000F7F8002EEDD16FF0220430E09DF80B3078
:10F85000AA681B2B51D092F8B8101B29E1D1522B6A
:10F860004BD11444002384F8B83092F8B9105B29C6
:10F870004BD102F1BA001F46022610F8011B0136D7
:10F880003B29B6B225D1802EDDD006F1B800104458
:10F89000002310F8014B2CBBFA2B28BFFA23FA2FB8
:10F8A00053853B4628BFFA2382F8B84013851D4A8A
:10F8B0001A49686909F083F8002C8FD0AB681A4A9E
:10F8C0009A620421194A284608F001FC6FF00704E7
:10F8D00084E707EB870301EB4303303B802E9FB2A5
:10F8E000CBD1B0E703EB8303013604EB4304B6B29C
:10F8F000303C7F2EA3B2CCD9A5E711190134A4B2B4
:10F90000092C81F8B8308CD9002382F8B8309AE7F6
:10F910001FC1010016C1010050C5010051BD010009
:10F9200065C5010053C501001800500045C1010024
:10F9300037B5054601A9022001F090F9044610BB35
:10F940000198134A81681023103909F0B8FB044666
:10F95000019809F096FBB4B9C5B1022009F02AF963
:10F96000044680B9032501A9022001F077F9044675
:10F9700048B9019881682A46283909F0ECF804460C
:10F98000019809F07EFB204603B030BD0225EAE76E
:10F9900070B40100F0B5104B104C114DE41AA410D6
:10F9A0006C43104DD5F824C00025A54202D16FF05C
:10F9B0002200F0BD5F6867450AD31E6946B197F81B
:10F9C00002E00779BE4503D13346BDE8F040184751
:10F9D00001352433E9E700BF2C08002098080020F7
:10F9E000398EE338EC0F00202DE9F041124B134C17
:10F9F000134DE41AA4106C43124DD5F824C0002511
:10FA0000A54203D16FF02200BDE8F0815E68664533
:10FA10000ED39F6967B196F8028090F804E0F04534
:10FA200003D13B46BDE8F04118477679012EF8D066
:10FA300001352433E4E700BF2C080020980800209B
:10FA4000398EE338EC0F00202DE9F8430D4C0E4BB6
:10FA50000E4F1B1B9B100546884691465F430026B0
:10FA6000B74202D16FF022000AE0636913B9013690
:10FA70002434F5E74A464146284698470028F6D1FF
:10FA8000BDE8F8832C08002098080020398EE33860
:10FA900007B583788DF800300379427943EA022371
:10FAA000ADF80230C378684603F003038DF80430E4
:10FAB00001F0D8FF10F1450F04D018B1002003B0B9
:10FAC0005DF804FB9DF8000002F04CF810F1450FC2
:10FAD00001D00028F2D1024B012083F8B900EEE7F3
:10FAE000EC0F00202DE9F14F254B264C264F1B1B18
:10FAF0009B105F43031F012B05460E4625D8234B61
:10FB000093F8B920984602B300F016FD042D1CD1DD
:10FB10004FF000094F4515D0D4F820B04FF0000A3F
:10FB2000227F5FFA8AF39A4203D809F1010924344B
:10FB3000F0E70BEBC3030AF1010A187902F036F87B
:10FB40000028EDDA002388F8B9300E4C4FF0000899
:10FB5000B84508D10D4B1B6A7BB13146284601B030
:10FB6000BDE8F04F1847E3681BB1324629462046EE
:10FB7000984708F101082434EAE701B0BDE8F08FA6
:10FB8000980800202C080020398EE338EC0F002064
:10FB90002DE9F04FAE4DAB6985B006460C46904658
:10FBA00063B9337803F01F03012B00F08880022B28
:10FBB00000F0D18043B16FF0150002E098470028B3
:10FBC000EFD105B0BDE8F08F72787088D8F80030BA
:10FBD000092AF0D801A151F822F000BF05FC00006D
:10FBE000B7FB0000B7FB0000B7FB0000B7FB00004D
:10FBF00011FC00001BFC0000B7FB000049FC0000EA
:10FC000053FC00000020012258701A7002236FE09C
:10FC1000C0B201F017FF0020D3E7020A131F012B27
:10FC2000C9D9072AC7D86B6AC0B200211D78002D38
:10FC3000C1D05E78964203D1884200F0F180013154
:10FC40002B44F3E71B78F1E095F8BA201A700123F2
:10FC5000ECE0C7B28DF80F7077B14FF0FF086C6A17
:10FC60000026C146237853B9EB691BB10DF10F0192
:10FC700003209847002E9ED085F8BA70CBE76378B2
:10FC8000042B0DD0052B0ED0022B06D194F8058045
:10FC90009DF80F30434508BF012623781C44E1E757
:10FCA00094F80390F9E79DF80F304345F5D1B9F189
:10FCB000000FF2D12046FFF7EBFE0646EDE795F880
:10FCC000BA30002B3FF477AF6F6A96F804903B464A
:10FCD000197800293FF46FAF5A78022A03D11879B6
:10FCE000484500F2A5800B44F2E70020187001237C
:10FCF000236066E796F802B0FF26B2464FF0000890
:10FD00003B783BB9EB6913B1414607209847002087
:10FD1000206056E77B78042B04D0052B0BD03B7872
:10FD20001F44EDE7BE7897F803A0B145F7D1D3455E
:10FD300008BFB846F3E7B145F1D1D34507D0B8784D
:10FD4000019000F0D1FB019801F030FFE7E7384661
:10FD5000FFF79EFEE3E73079D8F800808DF80F00BA
:10FD600030F080071ED03B4B3B4A3C49D21A9210E0
:10FD70004A434FF0000C62453FF41DAF196A93F8F7
:10FD80001C904FF0000E04395FFA8EFACA4503D377
:10FD90000CF1010C2433EEE70EF1010E11F83EA038
:10FDA0008245F1D17378012B11D0032B24D0002B85
:10FDB0007FF401AF27B195F8BA30002B3FF4FBAECA
:10FDC000414601F0B5FE002088F801001EE7738867
:10FDD000002B7FF4F0AE27B195F8BA30002B3FF43A
:10FDE000EAAE01F087FEEB69002B3FF414AF0DF192
:10FDF0000F01092098470EE77388002B7FF4DBAED4
:10FE000027B195F8BA30002B3FF4D5AE01F04CFE87
:10FE1000EB69002B3FF4FFAE0DF10F010820E9E77D
:10FE2000022AC8F800307FF40DAF5B882360F2E649
:10FE30007078D8F800300A283FF457AF0B283FF409
:10FE400059AF00287FF4B7AE187058702260B8E63A
:10FE5000EC0F00202C08002098080020398EE33891
:10FE600008B509480378C3F341130A3350F8233027
:10FE70003BB100F1080200F110019847C043C00FE8
:10FE800008BD1846FCE700BFEC0F002013B50D4C71
:10FE9000237D7BB9E268A168019201AB802008F064
:10FEA000F3FE0199A268E3680A445B1AA260E3606A
:10FEB00002B010BD00231A4619468020237501F0B8
:10FEC00095FEF5E7EC0F002030B585B000230193D7
:10FED0000246002857D1002934D108220B460DEBE9
:10FEE000020109F019FB002804DA802001F0DCFD92
:10FEF00005B030BD294CBDF80E3002992160802B31
:10FF000003999DF80820616006D9D10904D18020A9
:10FF100001F0CAFD0020E9E721492361C4E9021389
:10FF2000002121750BB1D309E2D0FFF799FF00281A
:10FF3000DBD0E28823699A42D4BFE260E360FFF736
:10FF4000A5FFD5E7154CD4E90215002D01AB04DC63
:10FF500009F0E2FA0028CBDAC7E72A4609F0DCFA12
:10FF60000028D4DB0199A268E3680A445B1AA26006
:10FF7000E360002BBCD104F13803A360FFF770FFEE
:10FF80000028DCD1B1E78028B2D1044BDA68002A1E
:10FF9000D5D11B7D002BD2D1AAE700BFEC0F0020EA
:10FFA00024100020054B064A9A62064ADA62064A85
:10FFB0001A63064A58629A6100207047EC0F0020CD
:10FFC00091FB000095F9000049FA0000E9F90000F2
:10FFD000074B10B593F8B84024B900F0AFF918B149
:10FFE000FFF7E0FF002010BD4FF0FF30FBE700BF40
:10FFF000EC0F00202DE9F7430446374D37484FF00A
:020000040001F9
:10000000FF324FF0FF3306F063FA95F8B860002E28
:1000100042D133482C62E86101F0F2FE01F0C2FCEB
:10002000041E3ADB00F0AAFA041E36DB40236846C1
:10003000ADF802308DF804608DF8006001F012FD1B
:10004000041E2ADB802768468DF8007001F00AFD47
:10005000041E22DB2349304601F0C0FE041E1CDBD7
:100060002049384601F0BAFE041E16DB1E4C1F4B19
:100070001F4A1B1B9B1002FB03F9B14514D1002042
:1000800001F070FD041E08DB802001F06BFD041EF2
:1000900003DB012385F8B8300024104806F090FAFD
:1000A000204603B0BDE8F083D4F820800027237FEA
:1000B000FAB2934202D801362434DEE708EBC203D9
:1000C00058F83210187901F089FE01370028EED077
:1000D0004FF0FF34E1E700BFEC0F00205406002092
:1000E000E5FA0000C9FE00002C0800209808002056
:1000F000398EE33830B51C4B89B003AA03F11005E3
:1001000018685968144603C40833AB422246F7D135
:100110001B7823700822002101A809F0EBFB1222B2
:100120000021124809F0E6FB082101A809F003FAB2
:10013000002816DD0D4901AA002012F8013B08AC89
:1001400004EB131403F00F0314F8144C0C7008ACF8
:100150002344013013F8143C4B70082801F10201CC
:10016000EBD1024809B030BD6AC501003B3D00201B
:100170002DE9F04F6C4A6D4B6D499B1A87B09B106F
:1001800000264B43044601934FF0011AB046374610
:10019000B146934623783BB9664AA01C904200F0D2
:1001A000C080FFF7E5FF17E06378052B05D8DFE88F
:1001B00003F07F04037F072BA14623781C44E9E763
:1001C000E378002BF9D1A3789BB9574A1F46019BCE
:1001D000BB4204D14FF0FF3007B0BDE8F08F536849
:1001E0009C4202F1240209D1242303FB07B7BB6818
:1001F00033B908F101085FFA88F8DEE70137E6E76E
:10020000414620469847F4E7002FE3D00023012120
:100210003A7F9342DEDA3A6AA57802EBC30210799C
:10022000854201D00133F3E7012594F803C094F827
:1002300005E00CF0030C8DF814C094F804C04CEAEF
:100240000E2CADF812C094F902C0BCF1000FE8B258
:1002500025DA05F1100C01FA0CFC1CEA0A0F23D177
:1002600060F07F008DF8100004A8CDE9023209F09B
:100270003BF9DDE902320121B0B99DF81030A370DD
:1002800013F0800F137118BF10350B4615BFAB402C
:1002900003FA05F54AEA030A4AEA050A8DE701FA74
:1002A00005FC1CEA0A0FDDD00135102DBDD1B9E7E0
:1002B000032E1ED1FFF71EFF054668B109F0A6FA0E
:1002C000029048B11C4809F0A1FA029A824203D177
:1002D0002946A01C09F0E3FA23786FF00201E21826
:1002E000091B04EB53030020D14213D50136F6B2AB
:1002F00063E7002EF0D1B9F1000F3FF46BAFA4EB30
:10030000090389F80230C3F3072389F8033089F819
:100310000480EBE702F8010C13F8015902F8025DC2
:10032000E2E7184658E700BF2C0800209808002094
:10033000398EE338290800206AC5010008B5044851
:10034000FFF716FF0028024818BF002008BD00BFB5
:1003500090060020014600F10803BFF35B8F53E8CD
:10036000002F42F0010043E8000CBCF1000FF6D171
:10037000BFF35B8FD30702D401480AF07ABA704703
:10038000900900200A4A30B500234C2404FB03F1F5
:100390008D5C854207D10A44506810F1100F14BFDC
:1003A0000020012030BD0133042BEFD10020F9E7FC
:1003B000A810002073B5184C06460D4600234C22A9
:1003C00002FB03F0015DB14212D104446B1E012B0C
:1003D0000CD894B9012D09D101AB01220DF1030113
:1003E000304601F073FC019B002BF5D102B070BDCB
:1003F0000133042BE4D10024E8E70AF013FB0346A1
:1004000004F13C000BB1012D02D108F08FFCEDE7A7
:10041000FFF7A0FFEAE700BFA81000202DE9F74F83
:100420000546904699464FF02003EFF3118B83F376
:100430001188BFF36F8FDFF8ACA000244C27019127
:1004400007FB04F600220023504606F045FD019903
:1004500058B9234FBC19636813F1100F14D10193DD
:10046000504606F013FD019B06E00134042C0AF10E
:100470004C0AE4D16FF00B038BF31188BFF36F8F3D
:10048000184603B0BDE8F08F0C9B63610D9BA36120
:100490006FF00F032061C4E90218BD55C4F84890FD
:1004A0006360284601F0B2FC58B1284601F0AEFC6A
:1004B000B8FBF0F202FB108018B1A36C43F0040308
:1004C000A36419F0020F06D006F13C003844FFF790
:1004D00041FF0023D0E7284601F03EFC0346CBE76E
:1004E000A8100020C410002070B54FF02003EFF3D7
:1004F000118483F31188BFF36F8F0E4900224C25BE
:1005000005FB02F35E5C86420BD1CA1850681030BE
:100510000AD16FF047003C335060C818FFF71AFF4C
:1005200002E00132042AEBD184F31188BFF36F8F0C
:1005300070BD00BFA8100020F8B50F4C00256FF06B
:1005400047074FF02003EFF3118683F31188BFF3C1
:100550006F8F6368103304D104F13C006760FFF7CC
:10056000F9FE86F31188BFF36F8F0135042D04F176
:100570004C04E6D1F8BD00BFA8100020F8B5002556
:10058000094C0A4F2E46C4E90F676664012204F144
:100590001C001146013506F053FC042D04F14C04F7
:1005A000F1D10020F8BD00BFA81000202D8D010062
:1005B00070B504460E4601791048154608F08BFBCD
:1005C000B0B16378212B0ED0222B08D0202B12D172
:1005D000296807220C3809F062F9002070BD638891
:1005E00000F8053CF9E70C38072328603360F4E78E
:1005F0006FF01200F2E76FF01500EFE7D81100205E
:1006000008B50146034808F077FB10B1012300F854
:10061000033C08BDD81100207FB5436E5B681B6AA0
:100620001E7D05463046FFF7ADFED0B9686D4FF42C
:10063000806203A907F095FC044690B18306A5F1FA
:10064000340308BF00F1FF340193074B0399009373
:10065000224602233046FFF7E1FE686D214607F08F
:100660009FFC04B070BD00BFB98F010030B5426877
:10067000C568104C85B042F2A1004FF40033CDE9BB
:100680000103002385F89530106AADF80C1000794D
:100690000A2201A908F0F8FA95F8953013B1002064
:1006A00005B030BD01200AF0C3F9013CF4D16FF070
:1006B0000400F5E7A186010010B5C4680023C4F862
:1006C0009C300E4BC4F89800596804F19C0291B913
:1006D000C3E900224FF0FF32002104F1080006F0C8
:1006E000AFFB074B0020C4E90B30064BA062C4E906
:1006F0000E30606310BD0A605A60EBE7D81100202D
:10070000458E010019060100014600F10803BFF300
:100710005B8F53E8002F42F0010043E8000CBCF16E
:10072000000FF6D1BFF35B8FD30702D401480AF064
:10073000A0B870479009002030B50B46144602F16E
:1007400044011A1E85B0054605DDD4F884000391E6
:1007500007F0E8FB0399012384F84130236843B193
:1007600094F843302BB104F128000391FFF7CCFF3C
:100770000399054B00930194012340222846FFF77B
:100780004DFE05B030BD00BF3907010010B504466D
:10079000083006F07BFB0D4B002118689A889B7986
:1007A000C4F88C00A4F89020A4F89610A4F8401087
:1007B00084F8923084F8941084F8931004F1440083
:1007C0004022BDE8104009F095B800BFD0B001004C
:1007D00038B50D4601461C4808F06EFA0446B8B11B
:1007E0000246691E52F898395B68052910D8DFE87F
:1007F00001F0100F0310151914F8021C19B91B6A27
:10080000187BFFF799FF012304F8023C04F8583CD9
:1008100038BDBDE838401046FFF7B8BF012304F8E3
:10082000013CF5E714F8011C0029F1D014F8020C82
:10083000002104F8011C0028EAD01B6A187BBDE8DF
:100840003840FFF779BF00BFD8110020044B93F860
:1008500038220020012A9CBF83F83802012070470B
:1008600068010020014B9970704700BFED06002021
:10087000F7B5037803F01F03012B05460E4624D17C
:1008800042780B2A21D1428832B1012A16D06FF06A
:100890002204204603B0F0BD0D4A13700C4F01A98D
:1008A000387800F0DBF9044660B9019883687B6012
:1008B00008F0E7FB6B88FB603460EAE7044B022238
:1008C0001A70EBE76FF00404E3E76FF01504E0E75C
:1008D0006801002010B5074C002304F11000A3604C
:1008E000A4F83A3208F0CDF918B140F60A63A4F83A
:1008F000383210BD68010020012907D1044B93F85C
:100900003822012A04BF022283F83822704700BF30
:100910006801002070B5154B93F88020022A01D0A1
:10092000052A11D1B3F88240114D1049B4FA84F36D
:100930005B09224605F1100008F065F92E4620B14A
:1009400040F20A33A6F8383270BD54B9062385F850
:100950003832FFF7BFFF2046FEF7EAFF0028EFD14D
:10096000F2E7052385F83832EEE700BF503C00205F
:100970006801002037B50D4B0D490022C3E9011273
:100980001A600C4D0C480AF0F4F9287801A900F01F
:1009900065F9044638B9019883686B6008F071FB0B
:1009A000204603B030BD6FF00404F9E7F0110020D9
:1009B0001509010068010020E01100200949BFF37A
:1009C0005B8F51E8003F43F0010241E8002000281E
:1009D000F7D1BFF35B8FDB0703D40348083909F075
:1009E00048BF7047F8110020900900202DE9F3411D
:1009F0004378074688461646062B35D8DFE813F0BD
:100A0000DE0047008A0007003E0028003100764BD8
:100A100093F8382293F83912062A04BF022283F889
:100A2000382232681170B3F83C2231684A70120AD9
:100A30008A7032680020D070326893F838321371AF
:100A4000336858710623C8F8003002B0BDE8F08161
:100A5000654A336892F838221A7001230B6000202F
:100A6000F3E7FFF7F3FE10B16FF01500EDE7FFF7C6
:100A700031FF5D4B0222A3F83822F0E7FFF7E6FED4
:100A80000028F1D1584B0222A3F83822DDE7FFF706
:100A9000DDFE04460028E7D1534D95F83832022B8D
:100AA00009D0052B22D0504B40F60A62A3F8382219
:100AB000FFF710FFD8E7FFF70DFF4C4B9C602B783A
:100AC000022B04D040F20A33A5F83832C7E7484871
:100AD000042285F8382280F88030FA883168A0F83E
:100AE000822008F0DCFEFFF769FFB8E7042285F8F2
:100AF00038223F4A82F88030F988A2F8821029B95A
:100B0000062385F83832394806F05EFDFA883168E8
:100B10003748E6E7FFF79AFE0028A5D1324C94F853
:100B20003832022B0DD0092BBDD1FB8823B1B4F88C
:100B30003A127A88914207D040F60A63A4F8383214
:100B40008DE7FFF7C7FEF0E7D4E90125551B9D426D
:100B500028BF1D46802D08D8ADB1207801A900F02E
:100B60007DF820B140F20A23E8E78025F5E73268F6
:100B7000A16801982B4608F085FA0646019808F00E
:100B800080FA002EEED1B4F83A22C8F80050A368DB
:100B90000132A4F83A2262682B449342A36009D13F
:100BA000FB889D4206D200200223C8F8000084F88A
:100BB00038324AE7092384F8383250E70A4B93F871
:100BC00038221AB1002283F838224DE7012283F837
:100BD0003822084B08481860FFF7E4F9002818BFCE
:100BE0006FF0040031E700BF68010020E011002031
:100BF000503C0020500800206907002010B5084C28
:100C000008494FF0FF334FF48062204606F0FAFAAD
:100C1000054904F1200006F0C1F9002010BD00BF15
:100C200090090020684D00207BC50100094B30B5BC
:100C30001D68094B1C6800239D4202DC0021084608
:100C400030BD1A0104EB0311A25C8242F7D00133DC
:100C5000F2E700BF24B50100A8030020084B1B6881
:100C600010B50C462BB1FFF7E1FF28B12060002042
:100C700010BD6FF00C00FBE76FF00100F8E700BF5C
:100C8000A803002008B5064805F0B4FA054B186023
:100C9000054801F087FD0448FCF7C8FA002008BDAC
:100CA000CABA0100FC110020AD0C01000A2838B5B9
:100CB000074D044604D1286883680D215B68984776
:100CC00028688368E1B25B689847204638BD00BF5A
:100CD000FC1100200E4A70B5841AA3100D4C5C4321
:100CE0000546E4B20C2000FB04200E4640210844D7
:100CF00008F051FB011E05DB074B03EBC4046368DE
:100D00009847002128463346BDE87040184700BF89
:100D100010120020B76DDBB650B501002DE9F0418F
:100D2000104E841BA310104C5C43E4B20C256543A9
:100D3000804605F140000F463044402108F044FB56
:100D4000011E09DB094A7319C3E90E27084B53F842
:100D50003430BDE8F041184740463B46BDE8F0411D
:100D6000184700BF10120020B76DDBB62B940100AE
:100D700050B50100002270B501210446104601F073
:100D800069FA002001F034FA0F4803F0C1FE0F4B5E
:100D9000984215D103F0CCFEE6680D49304606F0C6
:100DA000FDFC00280BDB01253564E468084904F1EB
:100DB0001C0006F0F3FC002801DBE564002070BD98
:100DC0006FF00400FBE700BF110E01000000AD0B47
:100DD00090B5010073B50C2301460B484B43C41872
:100DE000D4E90E5200264033A6631844019208F05D
:100DF00009FB35B1019A05482B4602B0BDE87040A9
:100E0000184702B070BD00BF101200205805002026
:100E100010B1012804D07047034B1B6C5B0701D154
:100E2000FFF7D8BF704700BF1012002010B509F0BF
:100E300059FE4FF47A730C46A0FB030103FB041127
:100E4000054AC30B43EA4143BDE81040C90B0120EA
:100E5000C2E9003103F07ABEA80A002008B54FF0BD
:100E60002003EFF3118183F31188BFF36F8F114AD1
:100E7000136843F0020013F0010310600CD04FF030
:100E80008042D2F80C34D2F80C2413F0010303D0C2
:100E9000094808F0B7FA012381F31188BFF36F8F77
:100EA00023B1BDE808400020FFF794BFBDE808402B
:100EB000FFF7BCBF601200205012002010B509F0EF
:100EC00011FE4FF47A730C46A0FB030103FB0411DF
:100ED000054AC30B43EA4143BDE81040C90B01205A
:100EE000C2E9003103F064BEB00A0020084BBFF332
:100EF0005B8F53E8002F22F0020143E80010002826
:100F0000F7D1BFF35B8FD30701D4FFF7D7BF70478B
:100F1000601200202DE9F74F4FF080470446D7F8C4
:100F2000186406F480364FF02003EFF3118883F342
:100F30001188BFF36F8F09F0D5FD4FF47A730A461D
:100F4000A0FB030103FB0211D7F80C94D7F80C3473
:100F5000254BD3F800B0254BC50BD3F800A045EACC
:100F6000414588F31188BFF36F8F214ADFF89880DD
:100F7000204F2046002107F0AAF819F0010FDFF8F2
:100F80008C901D4AB9F81A300093204614BF43468E
:100F90003B46002107F09BF8A5EB0B03009320468E
:100FA0005B46164A0021A5EB0A0507F090F8534668
:100FB0002046134A0095002107F089F82046114A7F
:100FC000002107F084F8B9F83630009320460A4A29
:100FD000002E14BF43463B46002107F078F800205E
:100FE00003B0BDE8F08F00BFA80A0020B00A0020BF
:100FF0009CC5010097C50100A7C50100C1C501003E
:10100000E3C5010004C601005BBC01001012002012
:1010100010B58CB000230122CDE906320A9308AA4C
:101020008DF82C3001930A4BCDE9082204AC01AABB
:10103000CDE90444CDE9023408F01EFA002805DBAE
:101040004FF480420023204605F046FF0CB010BD4F
:101050003F940100024AC3B21C2003FB00207047EA
:10106000101200202DE9F8433A49BFF35B8F064682
:10107000012251E8003F41E800200028F9D1BFF3E8
:101080005B8F33B9344935484B60CB608A6006F0DA
:1010900098FB731E012B32D8012E07D14FF08043ED
:1010A000D3F81C3403F00303012B28D009F0BAFC59
:1010B000044618B92A4B1B78002B44D14FF020036B
:1010C000EFF3118583F31188BFF36F8F0124254F50
:1010D000DFF89480DFF894904FF08042D2F8183413
:1010E000D2F81824D2030CD503F00303012B01D04E
:1010F000012E06D10CB385F31188BFF36F8FBDE8C5
:10110000F883ACB1284601F011F94FF08042D2F8D3
:101110001835002BE0D139680029DDD03B603B68F1
:101120000123C2F81835C8F88031C9F80030D3E778
:101130000021212005F03AFEE7E74FF0804302222C
:10114000C3F80423DBE74FF080430222C3F80823EF
:101150000546BCE764120020001200202C1200207B
:10116000674900200401004000E100E00800004061
:1011700000230A4A8A6030B5094C0B60CB604B6093
:101180001A4654F8045B25B1824201D10D6030BD8E
:1011900001320133382BF4D1F9E700BFB0B50100BB
:1011A000AC03002010B50C46002107F04EF900B149
:1011B000006820600023E3606360014BA36010BD02
:1011C000B0B501002DE9F84304468846506816463C
:1011D00005F010F8054648B9204673681D4A0221FB
:1011E00006F075FF6FF01200BDE8F88383683821C0
:1011F000DB689847031E04DA174A0221204606F0EE
:1012000066FFB8F1020F20D1144F002657F8042BC7
:101210001AB129462046FBF70FFE0136382EF5D1CC
:101220000020E1E756F8272029462046FBF704FE78
:10123000002806DA56F827304A460221204606F0F2
:1012400046FF0137B845EDD8EAE7DFF814900227EA
:10125000F8E700BFD8C60100EDC60100AC030020CE
:1012600008C7010000F07F03082B42B204D010F041
:10127000780F01D000207047002A00F00F0300F023
:10128000080006DA68B90948242202FB0300483046
:10129000704740B903F10900044B242202FB0030DF
:1012A000F5E7034870470348704700BF60240020FB
:1012B000C82500200C2700200146014809F0D9BAB2
:1012C0007006002008B5044803F01EFD034803F033
:1012D0005FFD002008BD00BF9AC90100F0B5010004
:1012E00010B51149BFF35B8F01F11803002253E8D9
:1012F000000F012803D143E80024002CF7D1BFF3ED
:101300005B8F0CBF012010460CD14C690431204684
:1013100006F0C5FA10F1450F04D12046BDE8104093
:1013200006F098BA10BD00BF602400200949BFF341
:101330005B8F51E8003F43F0010241E800200028A4
:10134000F7D1BFF35B8FDB0703D40348083909F0FB
:1013500090BA704788240020B80A002010B5064CC7
:1013600000220023204605F0B9F918B1043009F035
:101370000AFDF5E710BD00BF70060020DFB50026AE
:10138000002702ACCDE9006714481822214609F075
:10139000E6F900281BDAFFF7E1FFCDE900670F4807
:1013A0001822214609F0DBF900280CDB029B94E8A7
:1013B00003001A1D82E8030004221A751846FFF77D
:1013C0007BFFFFF7B3FF0023184604B0D0BD94E8BD
:1013D0000300029B1A1D82E80300F5E79004002039
:1013E000817870B506460846FFF73CFF0B06F57896
:1013F000044613D5002D45D1FFF7C0FF0346002852
:1014000040D0012284F82250027503220274DC606D
:10141000FFF752FFBDE87040FFF788BF55B1012DBF
:1014200030D1FFF7ABFF034660B384F82150057558
:101430000574ECE7FFF7A2FF20B3B378124A13F06C
:10144000800F03F0080111D041B1D2F8A836E36053
:101450000123037502230374C460D9E703F00F036B
:10146000142101FB0323D3F80836F0E711B1D2F8B9
:10147000A837ECE703F00F03142101FB0323D3F893
:101480000837E4E770BD00BF00700240F0B50646C3
:1014900089B01822002102A808F02CFA3378013B09
:1014A000052B24D8DFE803F07B0317176B19032300
:1014B0008DF814300024FFF761FF0346B8B1002215
:1014C0008DF81820047500F10C02DDE9050182E8B1
:1014D000030018461EE00423EAE7B1780846FFF748
:1014E000C1FE837A044623B1013B022B43D909B0E4
:1014F000F0BD0B06F57812D5002DF8D1FFF73EFFB1
:1015000003460028F3D0012284F8225002750322FA
:101510000274DC60FFF7D0FEFFF708FFE7E75DB17C
:10152000012DE4D1FFF72AFF03460028DFD084F81D
:10153000215005750574ECE7FFF720FF07460028EA
:10154000D5D00123037502230374C46004F10C0198
:10155000B07809F042F8134AE168B2F8D0328B4211
:1015600006D95B1AA2F8D03204F07AFB3846D1E7EC
:10157000A2F8D052FAE73046FFF732FFB7E76846E5
:1015800004F048FB9DF80130052B04D19DF8003094
:1015900013F0600FABD0044B059301248BE70224BA
:1015A00089E700BF60240020EC250020022810B548
:1015B00010D8094B1C5CFFF7E1FE58B10022027500
:1015C0000473FFF779FE054B1B7F1BB1BDE810408C
:1015D000FFF7ACBE10BD00BF97C90100602400201A
:1015E0002DE9F341DFF8CC8000250026002765F0C7
:1015F0007F00C0B2FFF736FE0369044673B900F1FD
:101600001001CDE900674022404609F0A8F8002803
:1016100004DA6FF00B0002B0BDE8F081204601351E
:1016200007F04AFF082DE2D1DFF888800025002668
:101630000027E8B2FFF716FE036904464BB900F134
:101640001001CDE900674022404609F088F80028E3
:10165000DFDB2046013507F02FFF082DE9D11449C3
:10166000D1F878310C4663B900220023CDE900237C
:1016700010484FF4806201F5BC7109F070F8002841
:10168000C7DB0D4807F018FFD4F8BC325BB9002265
:101690000023CDE90023094906484FF4806209F090
:1016A0005EF80028B5DB064807F006FF0020B2E729
:1016B000602400208C040020C82500201C27002066
:1016C0000C2700202DE9F043DFF8D482AE4C85B022
:1016D000074600220023404605F000F810B905B087
:1016E000BDE8F083637F027D00F1040933B9002A6D
:1016F00000F08580484609F046FBEAE7042AF9D85D
:10170000DFE812F07D000500010117013201037CC2
:10171000C568032BEED8DFE803F00238595EAE69E6
:1017200008220021304608F0E5F8984BD3F88024D1
:101730003270D3F884247270D3F88824D3F88C14D0
:1017400042EA01227280D3F89024D3F8941442EA3A
:101750000122B280D3F89824D3F89C3442EA0323C0
:10176000F3800823EB60687A2B6800219847337870
:10177000DB0906D1F38823B1A4F8D03204F070FA63
:10178000B8E70023A4F8D032B4E795F82130002B55
:10179000B0D095F82030002BACD0002685F8216021
:1017A0004FF0FF3285F820604FF0FF33784807F0A4
:1017B00099FEAB6901936B68CDE9023601A9687A9D
:1017C00004F04AF8724807F075FE93E72B68012190
:1017D000687A98478EE7AB7A73B995F823305BB98E
:1017E0004FF0FF324FF0FF33694807F07BFE04F003
:1017F00063FA674807F05EFE2B680221E8E7027B88
:10180000042A3FF677AFDFE802F05A03256773003A
:1018100003F0D4FF054600287FF46CAF03F018FFF7
:10182000BFF35B8F5B49012351E8002F002A03D1EE
:1018300041E800300028F7D1BFF35B8F7FF45AAF47
:1018400041F8105C41F8085C6069E360143905F008
:10185000B8FF4FE7002565F07F00C0B2FFF702FD3B
:10186000037A13B1407A04F01BFC0135082DF2D144
:1018700094F870311BB194F8710104F011FC00254B
:10188000E8B2FFF7EFFC037A13B1407A04F008FCEA
:101890000135082DF4D194F8B4321BB194F8B50297
:1018A00004F0FEFB012003F06BFF01236377236844
:1018B000002B3FF41FAF0021022098471AE70025B4
:1018C000657704F079FBFFF70BFD2368002B3FF4ED
:1018D00011AF29460420F0E7002B3FF40BAF04F0D2
:1018E00083FB2368002B3FF405AF00210520E4E7CC
:1018F0002268002A3FF4FEAE002B3FF4FBAE00212D
:1019000006209047F6E607F10C054FF0FF334FF045
:10191000FF32284607F0E6FDFFF762FE284607F093
:10192000C9FD57F8203C002B3FF4E4AE0021012014
:10193000C3E794F8B4327BB1012584F8CD5284F822
:10194000CC52FFF71BFD38B1134A05750574C26010
:10195000FFF7B2FCFFF7EAFC57F8203C002B3FF4FE
:10196000C9AE00210A20A8E708F0B6FC04F024FB69
:1019700003F064FEFFF7F2FCFFF732FE08F0A5FC6F
:10198000064803F025FFB5E6602400200070024001
:101990008C240020782400200C2700208D140100C6
:1019A0007006002038B5204C257F002D36D11F4908
:1019B0001F484FF0FF334FF4806205F023FC1D4BAE
:1019C0002562C4E9093504F12C0004F063FD2846C2
:1019D000FFF740FB2A4660610121272000F03AFC16
:1019E000154803F0F5FE154B984219D108F06DFC2F
:1019F000FFF7F6FD054608B901232377104B1B6856
:101A00000BB1FFF793FC4FF08043D3F83834DB077A
:101A100002D50020FFF7CAFD284638BD0025FBE7A8
:101A20006FF00405F8E700BF602400206851002033
:101A3000B80A0020C51601008D1401000000AD0B8E
:101A400070060020064B1A7F32B15B7F002B0CBF63
:101A50006FF01200002070476FF01200704700BF57
:101A6000602400200F4B1B7F10B50146B3B10478F2
:101A70002046FFF7F7FB10B96FF0150010BD447258
:101A80000B79837249884160230702D44B1E0B42B5
:101A9000F2D1204608F09CFD0020EFE76FF0120025
:101AA000ECE700BF60240020114B1A7F10B50146FF
:101AB000C2B15B7FB3B1FFF7D5FB0446A8B1837A0F
:101AC000012B12D007D9023B012B07D9A269E26191
